{
  "_format": "hh-sol-artifact-1",
  "contractName": "_5x5guys",
  "sourceName": "contracts/5x5guys.sol",
  "abi": [
    {
      "inputs": [],
      "stateMutability": "nonpayable",
      "type": "constructor"
    },
    {
      "anonymous": false,
      "inputs": [
        {
          "indexed": true,
          "internalType": "address",
          "name": "previousOwner",
          "type": "address"
        },
        {
          "indexed": true,
          "internalType": "address",
          "name": "newOwner",
          "type": "address"
        }
      ],
      "name": "OwnershipTransferred",
      "type": "event"
    },
    {
      "inputs": [
        {
          "internalType": "bytes32",
          "name": "_bytes32",
          "type": "bytes32"
        }
      ],
      "name": "bytes32ToString",
      "outputs": [
        {
          "internalType": "string",
          "name": "",
          "type": "string"
        }
      ],
      "stateMutability": "pure",
      "type": "function"
    },
    {
      "inputs": [
        {
          "internalType": "uint256",
          "name": "new_cost",
          "type": "uint256"
        }
      ],
      "name": "change_minting_cost",
      "outputs": [],
      "stateMutability": "nonpayable",
      "type": "function"
    },
    {
      "inputs": [],
      "name": "get_minting_cost",
      "outputs": [
        {
          "internalType": "uint256",
          "name": "",
          "type": "uint256"
        }
      ],
      "stateMutability": "view",
      "type": "function"
    },
    {
      "inputs": [
        {
          "internalType": "string",
          "name": "str",
          "type": "string"
        }
      ],
      "name": "mint_5x5guy",
      "outputs": [
        {
          "internalType": "uint256",
          "name": "",
          "type": "uint256"
        }
      ],
      "stateMutability": "payable",
      "type": "function"
    },
    {
      "inputs": [],
      "name": "owner",
      "outputs": [
        {
          "internalType": "address",
          "name": "",
          "type": "address"
        }
      ],
      "stateMutability": "view",
      "type": "function"
    },
    {
      "inputs": [],
      "name": "renounceOwnership",
      "outputs": [],
      "stateMutability": "nonpayable",
      "type": "function"
    },
    {
      "inputs": [
        {
          "internalType": "string",
          "name": "str",
          "type": "string"
        }
      ],
      "name": "string_to_array",
      "outputs": [
        {
          "internalType": "string[]",
          "name": "",
          "type": "string[]"
        }
      ],
      "stateMutability": "pure",
      "type": "function"
    },
    {
      "inputs": [
        {
          "internalType": "address",
          "name": "newOwner",
          "type": "address"
        }
      ],
      "name": "transferOwnership",
      "outputs": [],
      "stateMutability": "nonpayable",
      "type": "function"
    },
    {
      "inputs": [
        {
          "internalType": "uint256",
          "name": "amt",
          "type": "uint256"
        }
      ],
      "name": "withdraw",
      "outputs": [],
      "stateMutability": "nonpayable",
      "type": "function"
    }
  ],
  "bytecode": "0x60806040527320111434640cded801f3c170fde4a4934defb41a600160006101000a81548173ffffffffffffffffffffffffffffffffffffffff021916908373ffffffffffffffffffffffffffffffffffffffff160217905550600160009054906101000a900473ffffffffffffffffffffffffffffffffffffffff16600260006101000a81548173ffffffffffffffffffffffffffffffffffffffff021916908373ffffffffffffffffffffffffffffffffffffffff1602179055506115b3600260146101000a81548161ffff021916908361ffff1602179055506000600260166101000a81548161ffff021916908361ffff16021790555060006003553480156200010b57600080fd5b506200012c620001206200013260201b60201c565b6200013a60201b60201c565b620001fe565b600033905090565b60008060009054906101000a900473ffffffffffffffffffffffffffffffffffffffff169050816000806101000a81548173ffffffffffffffffffffffffffffffffffffffff021916908373ffffffffffffffffffffffffffffffffffffffff1602179055508173ffffffffffffffffffffffffffffffffffffffff168173ffffffffffffffffffffffffffffffffffffffff167f8be0079c531659141344cd1fd0a4f28419497f9722a3daafe3b4186f6b6457e060405160405180910390a35050565b6136e9806200020e6000396000f3fe6080604052600436106100765760003560e01c80632e1a7d4d1461007b578063715018a6146100a457806374a1ce05146100bb5780638da5cb5b146100f85780639201de5514610123578063af827af614610160578063b5ee622b14610190578063ddb2ea66146101bb578063f2fde38b146101e4575b600080fd5b34801561008757600080fd5b506100a2600480360381019061009d9190612556565b61020d565b005b3480156100b057600080fd5b506100b96102e7565b005b3480156100c757600080fd5b506100e260048036038101906100dd9190612515565b61036f565b6040516100ef9190612a6a565b60405180910390f35b34801561010457600080fd5b5061010d610882565b60405161011a9190612a4f565b60405180910390f35b34801561012f57600080fd5b5061014a600480360381019061014591906124ec565b6108ab565b6040516101579190612a8c565b60405180910390f35b61017a60048036038101906101759190612515565b610b04565b6040516101879190612dee565b60405180910390f35b34801561019c57600080fd5b506101a5611f56565b6040516101b29190612dee565b60405180910390f35b3480156101c757600080fd5b506101e260048036038101906101dd9190612556565b61200a565b005b3480156101f057600080fd5b5061020b600480360381019061020691906124c3565b612090565b005b610215612188565b73ffffffffffffffffffffffffffffffffffffffff16610233610882565b73ffffffffffffffffffffffffffffffffffffffff1614610289576040517f08c379a000000000000000000000000000000000000000000000000000000000815260040161028090612cce565b60405180910390fd5b4781111561029657600080fd5b61029e610882565b73ffffffffffffffffffffffffffffffffffffffff166108fc829081150290604051600060405180830381858888f193505050501580156102e3573d6000803e3d6000fd5b5050565b6102ef612188565b73ffffffffffffffffffffffffffffffffffffffff1661030d610882565b73ffffffffffffffffffffffffffffffffffffffff1614610363576040517f08c379a000000000000000000000000000000000000000000000000000000000815260040161035a90612cce565b60405180910390fd5b61036d6000612190565b565b606060008290506000815167ffffffffffffffff8111156103b9577f4e487b7100000000000000000000000000000000000000000000000000000000600052604160045260246000fd5b6040519080825280602002602001820160405280156103ec57816020015b60608152602001906001900390816103d75790505b5090506000805b835181101561087657600061046c85838151811061043a577f4e487b7100000000000000000000000000000000000000000000000000000000600052603260045260246000fd5b602001015160f81c60f81b7effffffffffffffffffffffffffffffffffffffffffffffffffffffffffffff19166108ab565b90506040518060400160405280600181526020017f5c000000000000000000000000000000000000000000000000000000000000008152508051906020012081805190602001201415610731576040518060400160405280600181526020017f6e0000000000000000000000000000000000000000000000000000000000000081525080519060200120610570866001856105079190612efd565b8151811061053e577f4e487b7100000000000000000000000000000000000000000000000000000000600052603260045260246000fd5b602001015160f81c60f81b7effffffffffffffffffffffffffffffffffffffffffffffffffffffffffffff19166108ab565b8051906020012014156105d2578084848461058b9190612f84565b815181106105c2577f4e487b7100000000000000000000000000000000000000000000000000000000600052603260045260246000fd5b602002602001018190525061072c565b6040518060400160405280600181526020017f5c0000000000000000000000000000000000000000000000000000000000000081525080519060200120610689866001856106209190612efd565b81518110610657577f4e487b7100000000000000000000000000000000000000000000000000000000600052603260045260246000fd5b602001015160f81c60f81b7effffffffffffffffffffffffffffffffffffffffffffffffffffffffffffff19166108ab565b80519060200120141561072b576040518060400160405280600581526020017f68656c6c6f0000000000000000000000000000000000000000000000000000008152508484846106d99190612f84565b81518110610710577f4e487b7100000000000000000000000000000000000000000000000000000000600052603260045260246000fd5b60200260200101819052506001836107289190612efd565b92505b5b610782565b8084848461073f9190612f84565b81518110610776577f4e487b7100000000000000000000000000000000000000000000000000000000600052603260045260246000fd5b60200260200101819052505b60405180602001604052806000815250805190602001208483815181106107d2577f4e487b7100000000000000000000000000000000000000000000000000000000600052603260045260246000fd5b6020026020010151805190602001201415610862576040518060400160405280600181526020017f5c00000000000000000000000000000000000000000000000000000000000000815250848381518110610856577f4e487b7100000000000000000000000000000000000000000000000000000000600052603260045260246000fd5b60200260200101819052505b50808061086e906130b6565b9150506103f3565b50819350505050919050565b60008060009054906101000a900473ffffffffffffffffffffffffffffffffffffffff16905090565b606060005b60208160ff161080156109285750600060f81b838260ff16602081106108ff577f4e487b7100000000000000000000000000000000000000000000000000000000600052603260045260246000fd5b1a60f81b7effffffffffffffffffffffffffffffffffffffffffffffffffffffffffffff191614155b15610940578080610938906130ff565b9150506108b0565b60008160ff1667ffffffffffffffff811115610985577f4e487b7100000000000000000000000000000000000000000000000000000000600052604160045260246000fd5b6040519080825280601f01601f1916602001820160405280156109b75781602001600182028036833780820191505090505b509050600091505b60208260ff16108015610a375750600060f81b848360ff1660208110610a0e577f4e487b7100000000000000000000000000000000000000000000000000000000600052603260045260246000fd5b1a60f81b7effffffffffffffffffffffffffffffffffffffffffffffffffffffffffffff191614155b15610afa57838260ff1660208110610a78577f4e487b7100000000000000000000000000000000000000000000000000000000600052603260045260246000fd5b1a60f81b818360ff1681518110610ab8577f4e487b7100000000000000000000000000000000000000000000000000000000600052603260045260246000fd5b60200101907effffffffffffffffffffffffffffffffffffffffffffffffffffffffffffff1916908160001a9053508180610af2906130ff565b9250506109bf565b8092505050919050565b6000600354600260009054906101000a900473ffffffffffffffffffffffffffffffffffffffff1673ffffffffffffffffffffffffffffffffffffffff1663b5ee622b6040518163ffffffff1660e01b815260040160206040518083038186803b158015610b7157600080fd5b505afa158015610b85573d6000803e3d6000fd5b505050506040513d601f19601f82011682018060405250810190610ba9919061257f565b610bb39190612efd565b341015610bf5576040517f08c379a0000000000000000000000000000000000000000000000000000000008152600401610bec90612dae565b60405180910390fd5b600260149054906101000a900461ffff1661ffff16600260169054906101000a900461ffff1661ffff1610610c5f576040517f08c379a0000000000000000000000000000000000000000000000000000000008152600401610c5690612aae565b60405180910390fd5b6000610c6a8361036f565b90506047815114610c7b8251612254565b90610cbc576040517f08c379a0000000000000000000000000000000000000000000000000000000008152600401610cb39190612a8c565b60405180910390fd5b506040518060400160405280600181526020017f20000000000000000000000000000000000000000000000000000000000000008152508051906020012081600081518110610d34577f4e487b7100000000000000000000000000000000000000000000000000000000600052603260045260246000fd5b60200260200101518051906020012014610d83576040517f08c379a0000000000000000000000000000000000000000000000000000000008152600401610d7a90612c4e565b60405180910390fd5b6040518060400160405280600181526020017f20000000000000000000000000000000000000000000000000000000000000008152508051906020012081600181518110610dfa577f4e487b7100000000000000000000000000000000000000000000000000000000600052603260045260246000fd5b60200260200101518051906020012014610e49576040517f08c379a0000000000000000000000000000000000000000000000000000000008152600401610e4090612aee565b60405180910390fd5b6040518060400160405280600181526020017f20000000000000000000000000000000000000000000000000000000000000008152508051906020012081600781518110610ec0577f4e487b7100000000000000000000000000000000000000000000000000000000600052603260045260246000fd5b60200260200101518051906020012014610f0f576040517f08c379a0000000000000000000000000000000000000000000000000000000008152600401610f0690612cae565b60405180910390fd5b6040518060400160405280600181526020017f0a000000000000000000000000000000000000000000000000000000000000008152508051906020012081600881518110610f86577f4e487b7100000000000000000000000000000000000000000000000000000000600052603260045260246000fd5b60200260200101518051906020012014610fd5576040517f08c379a0000000000000000000000000000000000000000000000000000000008152600401610fcc90612cee565b60405180910390fd5b6040518060400160405280600181526020017f2000000000000000000000000000000000000000000000000000000000000000815250805190602001208160098151811061104c577f4e487b7100000000000000000000000000000000000000000000000000000000600052603260045260246000fd5b6020026020010151805190602001201461109b576040517f08c379a000000000000000000000000000000000000000000000000000000000815260040161109290612d0e565b60405180910390fd5b6040518060400160405280600181526020017f0a000000000000000000000000000000000000000000000000000000000000008152508051906020012081601181518110611112577f4e487b7100000000000000000000000000000000000000000000000000000000600052603260045260246000fd5b60200260200101518051906020012014611161576040517f08c379a000000000000000000000000000000000000000000000000000000000815260040161115890612b6e565b60405180910390fd5b6040518060400160405280600181526020017f0a000000000000000000000000000000000000000000000000000000000000008152508051906020012081601a815181106111d8577f4e487b7100000000000000000000000000000000000000000000000000000000600052603260045260246000fd5b60200260200101518051906020012014611227576040517f08c379a000000000000000000000000000000000000000000000000000000000815260040161121e90612d4e565b60405180910390fd5b6040518060400160405280600181526020017f0a00000000000000000000000000000000000000000000000000000000000000815250805190602001208160238151811061129e577f4e487b7100000000000000000000000000000000000000000000000000000000600052603260045260246000fd5b602002602001015180519060200120146112ed576040517f08c379a00000000000000000000000000000000000000000000000000000000081526004016112e490612b0e565b60405180910390fd5b6040518060400160405280600181526020017f20000000000000000000000000000000000000000000000000000000000000008152508051906020012081602781518110611364577f4e487b7100000000000000000000000000000000000000000000000000000000600052603260045260246000fd5b602002602001015180519060200120146113b3576040517f08c379a00000000000000000000000000000000000000000000000000000000081526004016113aa90612d2e565b60405180910390fd5b6040518060400160405280600181526020017f2000000000000000000000000000000000000000000000000000000000000000815250805190602001208160288151811061142a577f4e487b7100000000000000000000000000000000000000000000000000000000600052603260045260246000fd5b60200260200101518051906020012014611479576040517f08c379a000000000000000000000000000000000000000000000000000000000815260040161147090612c0e565b60405180910390fd5b6040518060400160405280600181526020017f3e0000000000000000000000000000000000000000000000000000000000000081525080519060200120816029815181106114f0577f4e487b7100000000000000000000000000000000000000000000000000000000600052603260045260246000fd5b6020026020010151805190602001201461153f576040517f08c379a000000000000000000000000000000000000000000000000000000000815260040161153690612b8e565b60405180910390fd5b6040518060400160405280600181526020017f0a000000000000000000000000000000000000000000000000000000000000008152508051906020012081602c815181106115b6577f4e487b7100000000000000000000000000000000000000000000000000000000600052603260045260246000fd5b60200260200101518051906020012014611605576040517f08c379a00000000000000000000000000000000000000000000000000000000081526004016115fc90612d6e565b60405180910390fd5b6040518060400160405280600181526020017f0a00000000000000000000000000000000000000000000000000000000000000815250805190602001208160358151811061167c577f4e487b7100000000000000000000000000000000000000000000000000000000600052603260045260246000fd5b602002602001015180519060200120146116cb576040517f08c379a00000000000000000000000000000000000000000000000000000000081526004016116c290612c2e565b60405180910390fd5b6040518060400160405280600181526020017f60000000000000000000000000000000000000000000000000000000000000008152508051906020012081603881518110611742577f4e487b7100000000000000000000000000000000000000000000000000000000600052603260045260246000fd5b60200260200101518051906020012014611791576040517f08c379a000000000000000000000000000000000000000000000000000000000815260040161178890612ace565b60405180910390fd5b6040518060400160405280600181526020017f20000000000000000000000000000000000000000000000000000000000000008152508051906020012081603d81518110611808577f4e487b7100000000000000000000000000000000000000000000000000000000600052603260045260246000fd5b60200260200101518051906020012014611857576040517f08c379a000000000000000000000000000000000000000000000000000000000815260040161184e90612bae565b60405180910390fd5b6040518060400160405280600181526020017f0a000000000000000000000000000000000000000000000000000000000000008152508051906020012081603e815181106118ce577f4e487b7100000000000000000000000000000000000000000000000000000000600052603260045260246000fd5b6020026020010151805190602001201461191d576040517f08c379a000000000000000000000000000000000000000000000000000000000815260040161191490612b2e565b60405180910390fd5b6040518060400160405280600181526020017f20000000000000000000000000000000000000000000000000000000000000008152508051906020012081603f81518110611994577f4e487b7100000000000000000000000000000000000000000000000000000000600052603260045260246000fd5b602002602001015180519060200120146119e3576040517f08c379a00000000000000000000000000000000000000000000000000000000081526004016119da90612bce565b60405180910390fd5b6040518060400160405280600181526020017f20000000000000000000000000000000000000000000000000000000000000008152508051906020012081604081518110611a5a577f4e487b7100000000000000000000000000000000000000000000000000000000600052603260045260246000fd5b60200260200101518051906020012014611aa9576040517f08c379a0000000000000000000000000000000000000000000000000000000008152600401611aa090612bee565b60405180910390fd5b6040518060400160405280600181526020017f20000000000000000000000000000000000000000000000000000000000000008152508051906020012081604181518110611b20577f4e487b7100000000000000000000000000000000000000000000000000000000600052603260045260246000fd5b60200260200101518051906020012014611b6f576040517f08c379a0000000000000000000000000000000000000000000000000000000008152600401611b6690612c6e565b60405180910390fd5b6040518060400160405280600181526020017f20000000000000000000000000000000000000000000000000000000000000008152508051906020012081604281518110611be6577f4e487b7100000000000000000000000000000000000000000000000000000000600052603260045260246000fd5b60200260200101518051906020012014611c35576040517f08c379a0000000000000000000000000000000000000000000000000000000008152600401611c2c90612dce565b60405180910390fd5b6040518060400160405280600181526020017f20000000000000000000000000000000000000000000000000000000000000008152508051906020012081604581518110611cac577f4e487b7100000000000000000000000000000000000000000000000000000000600052603260045260246000fd5b60200260200101518051906020012014611cfb576040517f08c379a0000000000000000000000000000000000000000000000000000000008152600401611cf290612d8e565b60405180910390fd5b6040518060400160405280600181526020017f20000000000000000000000000000000000000000000000000000000000000008152508051906020012081604681518110611d72577f4e487b7100000000000000000000000000000000000000000000000000000000600052603260045260246000fd5b60200260200101518051906020012014611dc1576040517f08c379a0000000000000000000000000000000000000000000000000000000008152600401611db890612c8e565b60405180910390fd5b6001600260168282829054906101000a900461ffff16611de19190612ec5565b92506101000a81548161ffff021916908361ffff1602179055506000600260009054906101000a900473ffffffffffffffffffffffffffffffffffffffff1673ffffffffffffffffffffffffffffffffffffffff16638d2e41e5600260009054906101000a900473ffffffffffffffffffffffffffffffffffffffff1673ffffffffffffffffffffffffffffffffffffffff1663b5ee622b6040518163ffffffff1660e01b815260040160206040518083038186803b158015611ea357600080fd5b505afa158015611eb7573d6000803e3d6000fd5b505050506040513d601f19601f82011682018060405250810190611edb919061257f565b866040518363ffffffff1660e01b8152600401611ef89190612a8c565b6020604051808303818588803b158015611f1157600080fd5b505af1158015611f25573d6000803e3d6000fd5b50505050506040513d601f19601f82011682018060405250810190611f4a919061257f565b90508092505050919050565b6000600260009054906101000a900473ffffffffffffffffffffffffffffffffffffffff1673ffffffffffffffffffffffffffffffffffffffff1663b5ee622b6040518163ffffffff1660e01b815260040160206040518083038186803b158015611fc057600080fd5b505afa158015611fd4573d6000803e3d6000fd5b505050506040513d601f19601f82011682018060405250810190611ff8919061257f565b6003546120059190612efd565b905090565b612012612188565b73ffffffffffffffffffffffffffffffffffffffff16612030610882565b73ffffffffffffffffffffffffffffffffffffffff1614612086576040517f08c379a000000000000000000000000000000000000000000000000000000000815260040161207d90612cce565b60405180910390fd5b8060038190555050565b612098612188565b73ffffffffffffffffffffffffffffffffffffffff166120b6610882565b73ffffffffffffffffffffffffffffffffffffffff161461210c576040517f08c379a000000000000000000000000000000000000000000000000000000000815260040161210390612cce565b60405180910390fd5b600073ffffffffffffffffffffffffffffffffffffffff168173ffffffffffffffffffffffffffffffffffffffff16141561217c576040517f08c379a000000000000000000000000000000000000000000000000000000000815260040161217390612b4e565b60405180910390fd5b61218581612190565b50565b600033905090565b60008060009054906101000a900473ffffffffffffffffffffffffffffffffffffffff169050816000806101000a81548173ffffffffffffffffffffffffffffffffffffffff021916908373ffffffffffffffffffffffffffffffffffffffff1602179055508173ffffffffffffffffffffffffffffffffffffffff168173ffffffffffffffffffffffffffffffffffffffff167f8be0079c531659141344cd1fd0a4f28419497f9722a3daafe3b4186f6b6457e060405160405180910390a35050565b6060600082141561229c576040518060400160405280600181526020017f30000000000000000000000000000000000000000000000000000000000000008152509050612402565b600082905060005b600082146122ce5780806122b7906130b6565b915050600a826122c79190612f53565b91506122a4565b60008167ffffffffffffffff811115612310577f4e487b7100000000000000000000000000000000000000000000000000000000600052604160045260246000fd5b6040519080825280601f01601f1916602001820160405280156123425781602001600182028036833780820191505090505b50905060008290508593505b600084146123fa57600a846123639190613129565b603061236f9190612efd565b60f81b828261237d9061305b565b925082815181106123b7577f4e487b7100000000000000000000000000000000000000000000000000000000600052603260045260246000fd5b60200101907effffffffffffffffffffffffffffffffffffffffffffffffffffffffffffff1916908160001a905350600a846123f39190612f53565b935061234e565b819450505050505b919050565b600061241a61241584612e2e565b612e09565b90508281526020810184848401111561243257600080fd5b61243d848285613019565b509392505050565b6000813590506124548161366e565b92915050565b60008135905061246981613685565b92915050565b600082601f83011261248057600080fd5b8135612490848260208601612407565b91505092915050565b6000813590506124a88161369c565b92915050565b6000815190506124bd8161369c565b92915050565b6000602082840312156124d557600080fd5b60006124e384828501612445565b91505092915050565b6000602082840312156124fe57600080fd5b600061250c8482850161245a565b91505092915050565b60006020828403121561252757600080fd5b600082013567ffffffffffffffff81111561254157600080fd5b61254d8482850161246f565b91505092915050565b60006020828403121561256857600080fd5b600061257684828501612499565b91505092915050565b60006020828403121561259157600080fd5b600061259f848285016124ae565b91505092915050565b60006125b48383612640565b905092915050565b6125c581612fb8565b82525050565b60006125d682612e6f565b6125e08185612e92565b9350836020820285016125f285612e5f565b8060005b8581101561262e578484038952815161260f85826125a8565b945061261a83612e85565b925060208a019950506001810190506125f6565b50829750879550505050505092915050565b600061264b82612e7a565b6126558185612ea3565b9350612665818560208601613028565b61266e816131e7565b840191505092915050565b600061268482612e7a565b61268e8185612eb4565b935061269e818560208601613028565b6126a7816131e7565b840191505092915050565b60006126bf603b83612eb4565b91506126ca826131f8565b604082019050919050565b60006126e2601683612eb4565b91506126ed82613247565b602082019050919050565b6000612705601583612eb4565b915061271082613270565b602082019050919050565b6000612728601583612eb4565b915061273382613299565b602082019050919050565b600061274b601683612eb4565b9150612756826132c2565b602082019050919050565b600061276e602683612eb4565b9150612779826132eb565b604082019050919050565b6000612791601583612eb4565b915061279c8261333a565b602082019050919050565b60006127b4601683612eb4565b91506127bf82613363565b602082019050919050565b60006127d7601683612eb4565b91506127e28261338c565b602082019050919050565b60006127fa601683612eb4565b9150612805826133b5565b602082019050919050565b600061281d601683612eb4565b9150612828826133de565b602082019050919050565b6000612840601683612eb4565b915061284b82613407565b602082019050919050565b6000612863601683612eb4565b915061286e82613430565b602082019050919050565b6000612886601583612eb4565b915061289182613459565b602082019050919050565b60006128a9601683612eb4565b91506128b482613482565b602082019050919050565b60006128cc601583612eb4565b91506128d7826134ab565b602082019050919050565b60006128ef601583612eb4565b91506128fa826134d4565b602082019050919050565b6000612912602083612eb4565b915061291d826134fd565b602082019050919050565b6000612935601583612eb4565b915061294082613526565b602082019050919050565b6000612958601583612eb4565b91506129638261354f565b602082019050919050565b600061297b601583612eb4565b915061298682613578565b602082019050919050565b600061299e601583612eb4565b91506129a9826135a1565b602082019050919050565b60006129c1601683612eb4565b91506129cc826135ca565b602082019050919050565b60006129e4601683612eb4565b91506129ef826135f3565b602082019050919050565b6000612a07601683612eb4565b9150612a128261361c565b602082019050919050565b6000612a2a601683612eb4565b9150612a3582613645565b602082019050919050565b612a4981613002565b82525050565b6000602082019050612a6460008301846125bc565b92915050565b60006020820190508181036000830152612a8481846125cb565b905092915050565b60006020820190508181036000830152612aa68184612679565b905092915050565b60006020820190508181036000830152612ac7816126b2565b9050919050565b60006020820190508181036000830152612ae7816126d5565b9050919050565b60006020820190508181036000830152612b07816126f8565b9050919050565b60006020820190508181036000830152612b278161271b565b9050919050565b60006020820190508181036000830152612b478161273e565b9050919050565b60006020820190508181036000830152612b6781612761565b9050919050565b60006020820190508181036000830152612b8781612784565b9050919050565b60006020820190508181036000830152612ba7816127a7565b9050919050565b60006020820190508181036000830152612bc7816127ca565b9050919050565b60006020820190508181036000830152612be7816127ed565b9050919050565b60006020820190508181036000830152612c0781612810565b9050919050565b60006020820190508181036000830152612c2781612833565b9050919050565b60006020820190508181036000830152612c4781612856565b9050919050565b60006020820190508181036000830152612c6781612879565b9050919050565b60006020820190508181036000830152612c878161289c565b9050919050565b60006020820190508181036000830152612ca7816128bf565b9050919050565b60006020820190508181036000830152612cc7816128e2565b9050919050565b60006020820190508181036000830152612ce781612905565b9050919050565b60006020820190508181036000830152612d0781612928565b9050919050565b60006020820190508181036000830152612d278161294b565b9050919050565b60006020820190508181036000830152612d478161296e565b9050919050565b60006020820190508181036000830152612d6781612991565b9050919050565b60006020820190508181036000830152612d87816129b4565b9050919050565b60006020820190508181036000830152612da7816129d7565b9050919050565b60006020820190508181036000830152612dc7816129fa565b9050919050565b60006020820190508181036000830152612de781612a1d565b9050919050565b6000602082019050612e036000830184612a40565b92915050565b6000612e13612e24565b9050612e1f8282613085565b919050565b6000604051905090565b600067ffffffffffffffff821115612e4957612e486131b8565b5b612e52826131e7565b9050602081019050919050565b6000819050602082019050919050565b600081519050919050565b600081519050919050565b6000602082019050919050565b600082825260208201905092915050565b600082825260208201905092915050565b600082825260208201905092915050565b6000612ed082612fd4565b9150612edb83612fd4565b92508261ffff03821115612ef257612ef161315a565b5b828201905092915050565b6000612f0882613002565b9150612f1383613002565b9250827fffffffffffffffffffffffffffffffffffffffffffffffffffffffffffffffff03821115612f4857612f4761315a565b5b828201905092915050565b6000612f5e82613002565b9150612f6983613002565b925082612f7957612f78613189565b5b828204905092915050565b6000612f8f82613002565b9150612f9a83613002565b925082821015612fad57612fac61315a565b5b828203905092915050565b6000612fc382612fe2565b9050919050565b6000819050919050565b600061ffff82169050919050565b600073ffffffffffffffffffffffffffffffffffffffff82169050919050565b6000819050919050565b600060ff82169050919050565b82818337600083830152505050565b60005b8381101561304657808201518184015260208101905061302b565b83811115613055576000848401525b50505050565b600061306682613002565b9150600082141561307a5761307961315a565b5b600182039050919050565b61308e826131e7565b810181811067ffffffffffffffff821117156130ad576130ac6131b8565b5b80604052505050565b60006130c182613002565b91507fffffffffffffffffffffffffffffffffffffffffffffffffffffffffffffffff8214156130f4576130f361315a565b5b600182019050919050565b600061310a8261300c565b915060ff82141561311e5761311d61315a565b5b600182019050919050565b600061313482613002565b915061313f83613002565b92508261314f5761314e613189565b5b828206905092915050565b7f4e487b7100000000000000000000000000000000000000000000000000000000600052601160045260246000fd5b7f4e487b7100000000000000000000000000000000000000000000000000000000600052601260045260246000fd5b7f4e487b7100000000000000000000000000000000000000000000000000000000600052604160045260246000fd5b6000601f19601f8301169050919050565b7f6d617820737570706c7920686173206265656e207265616368656421206e6f2060008201527f6d6f726520357835677579732063616e20626520637265617465640000000000602082015250565b7f57726f6e6720737472696e6720666f726d617420313400000000000000000000600082015250565b7f57726f6e6720737472696e6720666f726d617420320000000000000000000000600082015250565b7f57726f6e6720737472696e6720666f726d617420380000000000000000000000600082015250565b7f57726f6e6720737472696e6720666f726d617420313600000000000000000000600082015250565b7f4f776e61626c653a206e6577206f776e657220697320746865207a65726f206160008201527f6464726573730000000000000000000000000000000000000000000000000000602082015250565b7f57726f6e6720737472696e6720666f726d617420360000000000000000000000600082015250565b7f57726f6e6720737472696e6720666f726d617420313100000000000000000000600082015250565b7f57726f6e6720737472696e6720666f726d617420313500000000000000000000600082015250565b7f57726f6e6720737472696e6720666f726d617420313700000000000000000000600082015250565b7f57726f6e6720737472696e6720666f726d617420313800000000000000000000600082015250565b7f57726f6e6720737472696e6720666f726d617420313000000000000000000000600082015250565b7f57726f6e6720737472696e6720666f726d617420313300000000000000000000600082015250565b7f57726f6e6720737472696e6720666f726d617420310000000000000000000000600082015250565b7f57726f6e6720737472696e6720666f726d617420313900000000000000000000600082015250565b7f57726f6e6720737472696e6720666f726d617432320000000000000000000000600082015250565b7f57726f6e6720737472696e6720666f726d617420330000000000000000000000600082015250565b7f4f776e61626c653a2063616c6c6572206973206e6f7420746865206f776e6572600082015250565b7f57726f6e6720737472696e6720666f726d617420340000000000000000000000600082015250565b7f57726f6e6720737472696e6720666f726d617420350000000000000000000000600082015250565b7f57726f6e6720737472696e6720666f726d617420390000000000000000000000600082015250565b7f57726f6e6720737472696e6720666f726d617420370000000000000000000000600082015250565b7f57726f6e6720737472696e6720666f726d617420313200000000000000000000600082015250565b7f57726f6e6720737472696e6720666f726d617420323100000000000000000000600082015250565b7f7061796d656e74206e6f742073756666696369656e7400000000000000000000600082015250565b7f57726f6e6720737472696e6720666f726d617420323000000000000000000000600082015250565b61367781612fb8565b811461368257600080fd5b50565b61368e81612fca565b811461369957600080fd5b50565b6136a581613002565b81146136b057600080fd5b5056fea2646970667358221220a62e816bafda21711137174a1c74931fc4f54d4f42eb2597fa4c71af444d0dce64736f6c63430008010033",
  "linkReferences": {},
  "deployedLinkReferences": {}
}