{
  "_format": "hh-sol-artifact-1",
  "contractName": "_5x5guys",
  "sourceName": "contracts/5x5guys.sol",
  "abi": [
    {
      "inputs": [],
      "stateMutability": "nonpayable",
      "type": "constructor"
    },
    {
      "anonymous": false,
      "inputs": [
        {
          "indexed": true,
          "internalType": "address",
          "name": "previousOwner",
          "type": "address"
        },
        {
          "indexed": true,
          "internalType": "address",
          "name": "newOwner",
          "type": "address"
        }
      ],
      "name": "OwnershipTransferred",
      "type": "event"
    },
    {
      "inputs": [
        {
          "internalType": "bytes32",
          "name": "_bytes32",
          "type": "bytes32"
        }
      ],
      "name": "bytes32ToString",
      "outputs": [
        {
          "internalType": "string",
          "name": "",
          "type": "string"
        }
      ],
      "stateMutability": "pure",
      "type": "function"
    },
    {
      "inputs": [
        {
          "internalType": "uint256",
          "name": "new_cost",
          "type": "uint256"
        }
      ],
      "name": "change_minting_cost",
      "outputs": [],
      "stateMutability": "nonpayable",
      "type": "function"
    },
    {
      "inputs": [],
      "name": "get_minting_cost",
      "outputs": [
        {
          "internalType": "uint256",
          "name": "",
          "type": "uint256"
        }
      ],
      "stateMutability": "view",
      "type": "function"
    },
    {
      "inputs": [],
      "name": "get_number_minted",
      "outputs": [
        {
          "internalType": "uint16",
          "name": "",
          "type": "uint16"
        }
      ],
      "stateMutability": "view",
      "type": "function"
    },
    {
      "inputs": [
        {
          "internalType": "string",
          "name": "str",
          "type": "string"
        }
      ],
      "name": "mint_5x5guy",
      "outputs": [
        {
          "internalType": "uint256",
          "name": "",
          "type": "uint256"
        }
      ],
      "stateMutability": "payable",
      "type": "function"
    },
    {
      "inputs": [],
      "name": "owner",
      "outputs": [
        {
          "internalType": "address",
          "name": "",
          "type": "address"
        }
      ],
      "stateMutability": "view",
      "type": "function"
    },
    {
      "inputs": [],
      "name": "renounceOwnership",
      "outputs": [],
      "stateMutability": "nonpayable",
      "type": "function"
    },
    {
      "inputs": [
        {
          "internalType": "string",
          "name": "str",
          "type": "string"
        }
      ],
      "name": "string_to_array",
      "outputs": [
        {
          "internalType": "string[]",
          "name": "",
          "type": "string[]"
        }
      ],
      "stateMutability": "pure",
      "type": "function"
    },
    {
      "inputs": [
        {
          "internalType": "address",
          "name": "newOwner",
          "type": "address"
        }
      ],
      "name": "transferOwnership",
      "outputs": [],
      "stateMutability": "nonpayable",
      "type": "function"
    },
    {
      "inputs": [
        {
          "internalType": "uint256",
          "name": "amt",
          "type": "uint256"
        }
      ],
      "name": "withdraw",
      "outputs": [],
      "stateMutability": "nonpayable",
      "type": "function"
    }
  ],
  "bytecode": "0x60806040527320111434640cded801f3c170fde4a4934defb41a600160006101000a81548173ffffffffffffffffffffffffffffffffffffffff021916908373ffffffffffffffffffffffffffffffffffffffff160217905550600160009054906101000a900473ffffffffffffffffffffffffffffffffffffffff16600260006101000a81548173ffffffffffffffffffffffffffffffffffffffff021916908373ffffffffffffffffffffffffffffffffffffffff1602179055506115b3600260146101000a81548161ffff021916908361ffff1602179055506000600260166101000a81548161ffff021916908361ffff16021790555060006003553480156200010b57600080fd5b506200012c620001206200013260201b60201c565b6200013a60201b60201c565b620001fe565b600033905090565b60008060009054906101000a900473ffffffffffffffffffffffffffffffffffffffff169050816000806101000a81548173ffffffffffffffffffffffffffffffffffffffff021916908373ffffffffffffffffffffffffffffffffffffffff1602179055508173ffffffffffffffffffffffffffffffffffffffff168173ffffffffffffffffffffffffffffffffffffffff167f8be0079c531659141344cd1fd0a4f28419497f9722a3daafe3b4186f6b6457e060405160405180910390a35050565b613a7f806200020e6000396000f3fe6080604052600436106100815760003560e01c80632e1a7d4d14610086578063609e211e146100af578063715018a6146100da57806374a1ce05146100f15780638da5cb5b1461012e5780639201de5514610159578063af827af614610196578063b5ee622b146101c6578063ddb2ea66146101f1578063f2fde38b1461021a575b600080fd5b34801561009257600080fd5b506100ad60048036038101906100a89190612912565b610243565b005b3480156100bb57600080fd5b506100c461031d565b6040516100d1919061324d565b60405180910390f35b3480156100e657600080fd5b506100ef610335565b005b3480156100fd57600080fd5b50610118600480360381019061011391906128d1565b6103bd565b6040516101259190613189565b60405180910390f35b34801561013a57600080fd5b50610143610519565b6040516101509190613137565b60405180910390f35b34801561016557600080fd5b50610180600480360381019061017b91906128a8565b610542565b60405161018d91906131ab565b60405180910390f35b6101b060048036038101906101ab91906128d1565b61079b565b6040516101bd9190613268565b60405180910390f35b3480156101d257600080fd5b506101db6124c5565b6040516101e89190613268565b60405180910390f35b3480156101fd57600080fd5b5061021860048036038101906102139190612912565b612579565b005b34801561022657600080fd5b50610241600480360381019061023c919061287f565b6125ff565b005b61024b6126f7565b73ffffffffffffffffffffffffffffffffffffffff16610269610519565b73ffffffffffffffffffffffffffffffffffffffff16146102bf576040517f08c379a00000000000000000000000000000000000000000000000000000000081526004016102b69061320d565b60405180910390fd5b478111156102cc57600080fd5b6102d4610519565b73ffffffffffffffffffffffffffffffffffffffff166108fc829081150290604051600060405180830381858888f19350505050158015610319573d6000803e3d6000fd5b5050565b6000600260169054906101000a900461ffff16905090565b61033d6126f7565b73ffffffffffffffffffffffffffffffffffffffff1661035b610519565b73ffffffffffffffffffffffffffffffffffffffff16146103b1576040517f08c379a00000000000000000000000000000000000000000000000000000000081526004016103a89061320d565b60405180910390fd5b6103bb60006126ff565b565b606060008290506000815167ffffffffffffffff811115610407577f4e487b7100000000000000000000000000000000000000000000000000000000600052604160045260246000fd5b60405190808252806020026020018201604052801561043a57816020015b60608152602001906001900390816104255790505b50905060005b825181101561050e576104b7838281518110610485577f4e487b7100000000000000000000000000000000000000000000000000000000600052603260045260246000fd5b602001015160f81c60f81b7effffffffffffffffffffffffffffffffffffffffffffffffffffffffffffff1916610542565b8282815181106104f0577f4e487b7100000000000000000000000000000000000000000000000000000000600052603260045260246000fd5b60200260200101819052508080610506906134ac565b915050610440565b508092505050919050565b60008060009054906101000a900473ffffffffffffffffffffffffffffffffffffffff16905090565b606060005b60208160ff161080156105bf5750600060f81b838260ff1660208110610596577f4e487b7100000000000000000000000000000000000000000000000000000000600052603260045260246000fd5b1a60f81b7effffffffffffffffffffffffffffffffffffffffffffffffffffffffffffff191614155b156105d75780806105cf906134f5565b915050610547565b60008160ff1667ffffffffffffffff81111561061c577f4e487b7100000000000000000000000000000000000000000000000000000000600052604160045260246000fd5b6040519080825280601f01601f19166020018201604052801561064e5781602001600182028036833780820191505090505b509050600091505b60208260ff161080156106ce5750600060f81b848360ff16602081106106a5577f4e487b7100000000000000000000000000000000000000000000000000000000600052603260045260246000fd5b1a60f81b7effffffffffffffffffffffffffffffffffffffffffffffffffffffffffffff191614155b1561079157838260ff166020811061070f577f4e487b7100000000000000000000000000000000000000000000000000000000600052603260045260246000fd5b1a60f81b818360ff168151811061074f577f4e487b7100000000000000000000000000000000000000000000000000000000600052603260045260246000fd5b60200101907effffffffffffffffffffffffffffffffffffffffffffffffffffffffffffff1916908160001a9053508180610789906134f5565b925050610656565b8092505050919050565b6000600354600260009054906101000a900473ffffffffffffffffffffffffffffffffffffffff1673ffffffffffffffffffffffffffffffffffffffff1663b5ee622b6040518163ffffffff1660e01b815260040160206040518083038186803b15801561080857600080fd5b505afa15801561081c573d6000803e3d6000fd5b505050506040513d601f19601f82011682018060405250810190610840919061293b565b61084a9190613382565b34101561088c576040517f08c379a00000000000000000000000000000000000000000000000000000000081526004016108839061322d565b60405180910390fd5b600260149054906101000a900461ffff1661ffff16600260169054906101000a900461ffff1661ffff16106108f6576040517f08c379a00000000000000000000000000000000000000000000000000000000081526004016108ed906131cd565b60405180910390fd5b6000610901836103bd565b90506040518060400160405280600181526020017f2000000000000000000000000000000000000000000000000000000000000000815250805190602001208160008151811061097a577f4e487b7100000000000000000000000000000000000000000000000000000000600052603260045260246000fd5b60200260200101518051906020012014816000815181106109c4577f4e487b7100000000000000000000000000000000000000000000000000000000600052603260045260246000fd5b60200260200101516040516020016109dc9190612e6d565b60405160208183030381529060405290610a2c576040517f08c379a0000000000000000000000000000000000000000000000000000000008152600401610a2391906131ab565b60405180910390fd5b506040518060400160405280600181526020017f20000000000000000000000000000000000000000000000000000000000000008152508051906020012081600181518110610aa4577f4e487b7100000000000000000000000000000000000000000000000000000000600052603260045260246000fd5b6020026020010151805190602001201481600181518110610aee577f4e487b7100000000000000000000000000000000000000000000000000000000600052603260045260246000fd5b6020026020010151604051602001610b069190612f17565b60405160208183030381529060405290610b56576040517f08c379a0000000000000000000000000000000000000000000000000000000008152600401610b4d91906131ab565b60405180910390fd5b506040518060400160405280600181526020017f20000000000000000000000000000000000000000000000000000000000000008152508051906020012081600781518110610bce577f4e487b7100000000000000000000000000000000000000000000000000000000600052603260045260246000fd5b6020026020010151805190602001201481600781518110610c18577f4e487b7100000000000000000000000000000000000000000000000000000000600052603260045260246000fd5b6020026020010151604051602001610c3091906130af565b60405160208183030381529060405290610c80576040517f08c379a0000000000000000000000000000000000000000000000000000000008152600401610c7791906131ab565b60405180910390fd5b506040518060400160405280600181526020017f0a000000000000000000000000000000000000000000000000000000000000008152508051906020012081600881518110610cf8577f4e487b7100000000000000000000000000000000000000000000000000000000600052603260045260246000fd5b6020026020010151805190602001201481600881518110610d42577f4e487b7100000000000000000000000000000000000000000000000000000000600052603260045260246000fd5b6020026020010151604051602001610d5a9190612e4b565b60405160208183030381529060405290610daa576040517f08c379a0000000000000000000000000000000000000000000000000000000008152600401610da191906131ab565b60405180910390fd5b506040518060400160405280600181526020017f20000000000000000000000000000000000000000000000000000000000000008152508051906020012081600981518110610e22577f4e487b7100000000000000000000000000000000000000000000000000000000600052603260045260246000fd5b6020026020010151805190602001201481600981518110610e6c577f4e487b7100000000000000000000000000000000000000000000000000000000600052603260045260246000fd5b6020026020010151604051602001610e849190612ed3565b60405160208183030381529060405290610ed4576040517f08c379a0000000000000000000000000000000000000000000000000000000008152600401610ecb91906131ab565b60405180910390fd5b506040518060400160405280600181526020017f0a000000000000000000000000000000000000000000000000000000000000008152508051906020012081601181518110610f4c577f4e487b7100000000000000000000000000000000000000000000000000000000600052603260045260246000fd5b6020026020010151805190602001201481601181518110610f96577f4e487b7100000000000000000000000000000000000000000000000000000000600052603260045260246000fd5b6020026020010151604051602001610fae9190612f9f565b60405160208183030381529060405290610ffe576040517f08c379a0000000000000000000000000000000000000000000000000000000008152600401610ff591906131ab565b60405180910390fd5b506040518060400160405280600181526020017f0a000000000000000000000000000000000000000000000000000000000000008152508051906020012081601a81518110611076577f4e487b7100000000000000000000000000000000000000000000000000000000600052603260045260246000fd5b6020026020010151805190602001201481601a815181106110c0577f4e487b7100000000000000000000000000000000000000000000000000000000600052603260045260246000fd5b60200260200101516040516020016110d8919061306b565b60405160208183030381529060405290611128576040517f08c379a000000000000000000000000000000000000000000000000000000000815260040161111f91906131ab565b60405180910390fd5b506040518060400160405280600181526020017f0a0000000000000000000000000000000000000000000000000000000000000081525080519060200120816023815181106111a0577f4e487b7100000000000000000000000000000000000000000000000000000000600052603260045260246000fd5b60200260200101518051906020012014816023815181106111ea577f4e487b7100000000000000000000000000000000000000000000000000000000600052603260045260246000fd5b60200260200101516040516020016112029190613049565b60405160208183030381529060405290611252576040517f08c379a000000000000000000000000000000000000000000000000000000000815260040161124991906131ab565b60405180910390fd5b506040518060400160405280600181526020017f200000000000000000000000000000000000000000000000000000000000000081525080519060200120816027815181106112ca577f4e487b7100000000000000000000000000000000000000000000000000000000600052603260045260246000fd5b6020026020010151805190602001201481602781518110611314577f4e487b7100000000000000000000000000000000000000000000000000000000600052603260045260246000fd5b602002602001015160405160200161132c9190612fc1565b6040516020818303038152906040529061137c576040517f08c379a000000000000000000000000000000000000000000000000000000000815260040161137391906131ab565b60405180910390fd5b506040518060400160405280600181526020017f200000000000000000000000000000000000000000000000000000000000000081525080519060200120816028815181106113f4577f4e487b7100000000000000000000000000000000000000000000000000000000600052603260045260246000fd5b602002602001015180519060200120148160288151811061143e577f4e487b7100000000000000000000000000000000000000000000000000000000600052603260045260246000fd5b60200260200101516040516020016114569190613115565b604051602081830303815290604052906114a6576040517f08c379a000000000000000000000000000000000000000000000000000000000815260040161149d91906131ab565b60405180910390fd5b506040518060400160405280600181526020017f3e00000000000000000000000000000000000000000000000000000000000000815250805190602001208160298151811061151e577f4e487b7100000000000000000000000000000000000000000000000000000000600052603260045260246000fd5b6020026020010151805190602001201481602981518110611568577f4e487b7100000000000000000000000000000000000000000000000000000000600052603260045260246000fd5b60200260200101516040516020016115809190612f39565b604051602081830303815290604052906115d0576040517f08c379a00000000000000000000000000000000000000000000000000000000081526004016115c791906131ab565b60405180910390fd5b506040518060400160405280600181526020017f0a000000000000000000000000000000000000000000000000000000000000008152508051906020012081602c81518110611648577f4e487b7100000000000000000000000000000000000000000000000000000000600052603260045260246000fd5b6020026020010151805190602001201481602c81518110611692577f4e487b7100000000000000000000000000000000000000000000000000000000600052603260045260246000fd5b60200260200101516040516020016116aa91906130d1565b604051602081830303815290604052906116fa576040517f08c379a00000000000000000000000000000000000000000000000000000000081526004016116f191906131ab565b60405180910390fd5b506040518060400160405280600181526020017f0a000000000000000000000000000000000000000000000000000000000000008152508051906020012081603581518110611772577f4e487b7100000000000000000000000000000000000000000000000000000000600052603260045260246000fd5b60200260200101518051906020012014816035815181106117bc577f4e487b7100000000000000000000000000000000000000000000000000000000600052603260045260246000fd5b60200260200101516040516020016117d491906130f3565b60405160208183030381529060405290611824576040517f08c379a000000000000000000000000000000000000000000000000000000000815260040161181b91906131ab565b60405180910390fd5b506040518060400160405280600181526020017f6000000000000000000000000000000000000000000000000000000000000000815250805190602001208160388151811061189c577f4e487b7100000000000000000000000000000000000000000000000000000000600052603260045260246000fd5b60200260200101518051906020012014816038815181106118e6577f4e487b7100000000000000000000000000000000000000000000000000000000600052603260045260246000fd5b60200260200101516040516020016118fe9190612eb1565b6040516020818303038152906040529061194e576040517f08c379a000000000000000000000000000000000000000000000000000000000815260040161194591906131ab565b60405180910390fd5b506040518060400160405280600181526020017f20000000000000000000000000000000000000000000000000000000000000008152508051906020012081603d815181106119c6577f4e487b7100000000000000000000000000000000000000000000000000000000600052603260045260246000fd5b6020026020010151805190602001201481603d81518110611a10577f4e487b7100000000000000000000000000000000000000000000000000000000600052603260045260246000fd5b6020026020010151604051602001611a289190612f5b565b60405160208183030381529060405290611a78576040517f08c379a0000000000000000000000000000000000000000000000000000000008152600401611a6f91906131ab565b60405180910390fd5b506040518060400160405280600181526020017f0a000000000000000000000000000000000000000000000000000000000000008152508051906020012081603e81518110611af0577f4e487b7100000000000000000000000000000000000000000000000000000000600052603260045260246000fd5b6020026020010151805190602001201481603e81518110611b3a577f4e487b7100000000000000000000000000000000000000000000000000000000600052603260045260246000fd5b6020026020010151604051602001611b529190613005565b60405160208183030381529060405290611ba2576040517f08c379a0000000000000000000000000000000000000000000000000000000008152600401611b9991906131ab565b60405180910390fd5b506040518060400160405280600181526020017f20000000000000000000000000000000000000000000000000000000000000008152508051906020012081603f81518110611c1a577f4e487b7100000000000000000000000000000000000000000000000000000000600052603260045260246000fd5b6020026020010151805190602001201481603f81518110611c64577f4e487b7100000000000000000000000000000000000000000000000000000000600052603260045260246000fd5b6020026020010151604051602001611c7c9190612fe3565b60405160208183030381529060405290611ccc576040517f08c379a0000000000000000000000000000000000000000000000000000000008152600401611cc391906131ab565b60405180910390fd5b506040518060400160405280600181526020017f20000000000000000000000000000000000000000000000000000000000000008152508051906020012081604081518110611d44577f4e487b7100000000000000000000000000000000000000000000000000000000600052603260045260246000fd5b6020026020010151805190602001201481604081518110611d8e577f4e487b7100000000000000000000000000000000000000000000000000000000600052603260045260246000fd5b6020026020010151604051602001611da6919061308d565b60405160208183030381529060405290611df6576040517f08c379a0000000000000000000000000000000000000000000000000000000008152600401611ded91906131ab565b60405180910390fd5b506040518060400160405280600181526020017f20000000000000000000000000000000000000000000000000000000000000008152508051906020012081604181518110611e6e577f4e487b7100000000000000000000000000000000000000000000000000000000600052603260045260246000fd5b6020026020010151805190602001201481604181518110611eb8577f4e487b7100000000000000000000000000000000000000000000000000000000600052603260045260246000fd5b6020026020010151604051602001611ed09190612f7d565b60405160208183030381529060405290611f20576040517f08c379a0000000000000000000000000000000000000000000000000000000008152600401611f1791906131ab565b60405180910390fd5b506040518060400160405280600181526020017f20000000000000000000000000000000000000000000000000000000000000008152508051906020012081604281518110611f98577f4e487b7100000000000000000000000000000000000000000000000000000000600052603260045260246000fd5b6020026020010151805190602001201481604281518110611fe2577f4e487b7100000000000000000000000000000000000000000000000000000000600052603260045260246000fd5b6020026020010151604051602001611ffa9190613027565b6040516020818303038152906040529061204a576040517f08c379a000000000000000000000000000000000000000000000000000000000815260040161204191906131ab565b60405180910390fd5b506040518060400160405280600181526020017f200000000000000000000000000000000000000000000000000000000000000081525080519060200120816045815181106120c2577f4e487b7100000000000000000000000000000000000000000000000000000000600052603260045260246000fd5b602002602001015180519060200120148160458151811061210c577f4e487b7100000000000000000000000000000000000000000000000000000000600052603260045260246000fd5b60200260200101516040516020016121249190612e8f565b60405160208183030381529060405290612174576040517f08c379a000000000000000000000000000000000000000000000000000000000815260040161216b91906131ab565b60405180910390fd5b506040518060400160405280600181526020017f200000000000000000000000000000000000000000000000000000000000000081525080519060200120816046815181106121ec577f4e487b7100000000000000000000000000000000000000000000000000000000600052603260045260246000fd5b6020026020010151805190602001201481604681518110612236577f4e487b7100000000000000000000000000000000000000000000000000000000600052603260045260246000fd5b602002602001015160405160200161224e9190612ef5565b6040516020818303038152906040529061229e576040517f08c379a000000000000000000000000000000000000000000000000000000000815260040161229591906131ab565b60405180910390fd5b506001600260168282829054906101000a900461ffff166122bf919061334a565b92506101000a81548161ffff021916908361ffff1602179055506000600260009054906101000a900473ffffffffffffffffffffffffffffffffffffffff1673ffffffffffffffffffffffffffffffffffffffff16638d2e41e5600260009054906101000a900473ffffffffffffffffffffffffffffffffffffffff1673ffffffffffffffffffffffffffffffffffffffff1663b5ee622b6040518163ffffffff1660e01b815260040160206040518083038186803b15801561238157600080fd5b505afa158015612395573d6000803e3d6000fd5b505050506040513d601f19601f820116820180604052508101906123b9919061293b565b866040518363ffffffff1660e01b81526004016123d691906131ab565b6020604051808303818588803b1580156123ef57600080fd5b505af1158015612403573d6000803e3d6000fd5b50505050506040513d601f19601f82011682018060405250810190612428919061293b565b9050600260009054906101000a900473ffffffffffffffffffffffffffffffffffffffff1673ffffffffffffffffffffffffffffffffffffffff166323b872dd3033846040518463ffffffff1660e01b815260040161248993929190613152565b600060405180830381600087803b1580156124a357600080fd5b505af11580156124b7573d6000803e3d6000fd5b505050508092505050919050565b6000600260009054906101000a900473ffffffffffffffffffffffffffffffffffffffff1673ffffffffffffffffffffffffffffffffffffffff1663b5ee622b6040518163ffffffff1660e01b815260040160206040518083038186803b15801561252f57600080fd5b505afa158015612543573d6000803e3d6000fd5b505050506040513d601f19601f82011682018060405250810190612567919061293b565b6003546125749190613382565b905090565b6125816126f7565b73ffffffffffffffffffffffffffffffffffffffff1661259f610519565b73ffffffffffffffffffffffffffffffffffffffff16146125f5576040517f08c379a00000000000000000000000000000000000000000000000000000000081526004016125ec9061320d565b60405180910390fd5b8060038190555050565b6126076126f7565b73ffffffffffffffffffffffffffffffffffffffff16612625610519565b73ffffffffffffffffffffffffffffffffffffffff161461267b576040517f08c379a00000000000000000000000000000000000000000000000000000000081526004016126729061320d565b60405180910390fd5b600073ffffffffffffffffffffffffffffffffffffffff168173ffffffffffffffffffffffffffffffffffffffff1614156126eb576040517f08c379a00000000000000000000000000000000000000000000000000000000081526004016126e2906131ed565b60405180910390fd5b6126f4816126ff565b50565b600033905090565b60008060009054906101000a900473ffffffffffffffffffffffffffffffffffffffff169050816000806101000a81548173ffffffffffffffffffffffffffffffffffffffff021916908373ffffffffffffffffffffffffffffffffffffffff1602179055508173ffffffffffffffffffffffffffffffffffffffff168173ffffffffffffffffffffffffffffffffffffffff167f8be0079c531659141344cd1fd0a4f28419497f9722a3daafe3b4186f6b6457e060405160405180910390a35050565b60006127d66127d1846132a8565b613283565b9050828152602081018484840111156127ee57600080fd5b6127f9848285613439565b509392505050565b60008135905061281081613a04565b92915050565b60008135905061282581613a1b565b92915050565b600082601f83011261283c57600080fd5b813561284c8482602086016127c3565b91505092915050565b60008135905061286481613a32565b92915050565b60008151905061287981613a32565b92915050565b60006020828403121561289157600080fd5b600061289f84828501612801565b91505092915050565b6000602082840312156128ba57600080fd5b60006128c884828501612816565b91505092915050565b6000602082840312156128e357600080fd5b600082013567ffffffffffffffff8111156128fd57600080fd5b6129098482850161282b565b91505092915050565b60006020828403121561292457600080fd5b600061293284828501612855565b91505092915050565b60006020828403121561294d57600080fd5b600061295b8482850161286a565b91505092915050565b600061297083836129fc565b905092915050565b612981816133d8565b82525050565b6000612992826132e9565b61299c818561330c565b9350836020820285016129ae856132d9565b8060005b858110156129ea57848403895281516129cb8582612964565b94506129d6836132ff565b925060208a019950506001810190506129b2565b50829750879550505050505092915050565b6000612a07826132f4565b612a11818561331d565b9350612a21818560208601613448565b612a2a8161357d565b840191505092915050565b6000612a40826132f4565b612a4a818561332e565b9350612a5a818560208601613448565b612a638161357d565b840191505092915050565b6000612a79826132f4565b612a83818561333f565b9350612a93818560208601613448565b80840191505092915050565b6000612aac603b8361332e565b9150612ab78261358e565b604082019050919050565b6000612acf60178361333f565b9150612ada826135dd565b601782019050919050565b6000612af260178361333f565b9150612afd82613606565b601782019050919050565b6000612b1560188361333f565b9150612b208261362f565b601882019050919050565b6000612b3860268361332e565b9150612b4382613658565b604082019050919050565b6000612b5b60188361333f565b9150612b66826136a7565b601882019050919050565b6000612b7e60178361333f565b9150612b89826136d0565b601782019050919050565b6000612ba160188361333f565b9150612bac826136f9565b601882019050919050565b6000612bc460178361333f565b9150612bcf82613722565b601782019050919050565b6000612be760188361333f565b9150612bf28261374b565b601882019050919050565b6000612c0a60188361333f565b9150612c1582613774565b601882019050919050565b6000612c2d60188361333f565b9150612c388261379d565b601882019050919050565b6000612c5060178361333f565b9150612c5b826137c6565b601782019050919050565b6000612c7360208361332e565b9150612c7e826137ef565b602082019050919050565b6000612c9660178361333f565b9150612ca182613818565b601782019050919050565b6000612cb960188361333f565b9150612cc482613841565b601882019050919050565b6000612cdc60188361333f565b9150612ce78261386a565b601882019050919050565b6000612cff60188361333f565b9150612d0a82613893565b601882019050919050565b6000612d2260178361333f565b9150612d2d826138bc565b601782019050919050565b6000612d4560178361333f565b9150612d50826138e5565b601782019050919050565b6000612d6860188361333f565b9150612d738261390e565b601882019050919050565b6000612d8b60178361333f565b9150612d9682613937565b601782019050919050565b6000612dae60188361333f565b9150612db982613960565b601882019050919050565b6000612dd160188361333f565b9150612ddc82613989565b601882019050919050565b6000612df460168361332e565b9150612dff826139b2565b602082019050919050565b6000612e1760188361333f565b9150612e22826139db565b601882019050919050565b612e36816133f4565b82525050565b612e4581613422565b82525050565b6000612e5682612ac2565b9150612e628284612a6e565b915081905092915050565b6000612e7882612ae5565b9150612e848284612a6e565b915081905092915050565b6000612e9a82612b08565b9150612ea68284612a6e565b915081905092915050565b6000612ebc82612b4e565b9150612ec88284612a6e565b915081905092915050565b6000612ede82612b71565b9150612eea8284612a6e565b915081905092915050565b6000612f0082612b94565b9150612f0c8284612a6e565b915081905092915050565b6000612f2282612bb7565b9150612f2e8284612a6e565b915081905092915050565b6000612f4482612bda565b9150612f508284612a6e565b915081905092915050565b6000612f6682612bfd565b9150612f728284612a6e565b915081905092915050565b6000612f8882612c20565b9150612f948284612a6e565b915081905092915050565b6000612faa82612c43565b9150612fb68284612a6e565b915081905092915050565b6000612fcc82612c89565b9150612fd88284612a6e565b915081905092915050565b6000612fee82612cac565b9150612ffa8284612a6e565b915081905092915050565b600061301082612ccf565b915061301c8284612a6e565b915081905092915050565b600061303282612cf2565b915061303e8284612a6e565b915081905092915050565b600061305482612d15565b91506130608284612a6e565b915081905092915050565b600061307682612d38565b91506130828284612a6e565b915081905092915050565b600061309882612d5b565b91506130a48284612a6e565b915081905092915050565b60006130ba82612d7e565b91506130c68284612a6e565b915081905092915050565b60006130dc82612da1565b91506130e88284612a6e565b915081905092915050565b60006130fe82612dc4565b915061310a8284612a6e565b915081905092915050565b600061312082612e0a565b915061312c8284612a6e565b915081905092915050565b600060208201905061314c6000830184612978565b92915050565b60006060820190506131676000830186612978565b6131746020830185612978565b6131816040830184612e3c565b949350505050565b600060208201905081810360008301526131a38184612987565b905092915050565b600060208201905081810360008301526131c58184612a35565b905092915050565b600060208201905081810360008301526131e681612a9f565b9050919050565b6000602082019050818103600083015261320681612b2b565b9050919050565b6000602082019050818103600083015261322681612c66565b9050919050565b6000602082019050818103600083015261324681612de7565b9050919050565b60006020820190506132626000830184612e2d565b92915050565b600060208201905061327d6000830184612e3c565b92915050565b600061328d61329e565b9050613299828261347b565b919050565b6000604051905090565b600067ffffffffffffffff8211156132c3576132c261354e565b5b6132cc8261357d565b9050602081019050919050565b6000819050602082019050919050565b600081519050919050565b600081519050919050565b6000602082019050919050565b600082825260208201905092915050565b600082825260208201905092915050565b600082825260208201905092915050565b600081905092915050565b6000613355826133f4565b9150613360836133f4565b92508261ffff038211156133775761337661351f565b5b828201905092915050565b600061338d82613422565b915061339883613422565b9250827fffffffffffffffffffffffffffffffffffffffffffffffffffffffffffffffff038211156133cd576133cc61351f565b5b828201905092915050565b60006133e382613402565b9050919050565b6000819050919050565b600061ffff82169050919050565b600073ffffffffffffffffffffffffffffffffffffffff82169050919050565b6000819050919050565b600060ff82169050919050565b82818337600083830152505050565b60005b8381101561346657808201518184015260208101905061344b565b83811115613475576000848401525b50505050565b6134848261357d565b810181811067ffffffffffffffff821117156134a3576134a261354e565b5b80604052505050565b60006134b782613422565b91507fffffffffffffffffffffffffffffffffffffffffffffffffffffffffffffffff8214156134ea576134e961351f565b5b600182019050919050565b60006135008261342c565b915060ff8214156135145761351361351f565b5b600182019050919050565b7f4e487b7100000000000000000000000000000000000000000000000000000000600052601160045260246000fd5b7f4e487b7100000000000000000000000000000000000000000000000000000000600052604160045260246000fd5b6000601f19601f8301169050919050565b7f6d617820737570706c7920686173206265656e207265616368656421206e6f2060008201527f6d6f726520357835677579732063616e20626520637265617465640000000000602082015250565b7f57726f6e6720737472696e6720666f726d617420343a20000000000000000000600082015250565b7f57726f6e6720737472696e6720666f726d617420313a20000000000000000000600082015250565b7f57726f6e6720737472696e6720666f726d61742032313a200000000000000000600082015250565b7f4f776e61626c653a206e6577206f776e657220697320746865207a65726f206160008201527f6464726573730000000000000000000000000000000000000000000000000000602082015250565b7f57726f6e6720737472696e6720666f726d61742031343a200000000000000000600082015250565b7f57726f6e6720737472696e6720666f726d617420353a20000000000000000000600082015250565b7f57726f6e6720737472696e6720666f726d61742032323a200000000000000000600082015250565b7f57726f6e6720737472696e6720666f726d617420323a20000000000000000000600082015250565b7f57726f6e6720737472696e6720666f726d61742031313a200000000000000000600082015250565b7f57726f6e6720737472696e6720666f726d61742031353a200000000000000000600082015250565b7f57726f6e6720737472696e6720666f726d61742031393a200000000000000000600082015250565b7f57726f6e6720737472696e6720666f726d617420363a20000000000000000000600082015250565b7f4f776e61626c653a2063616c6c6572206973206e6f7420746865206f776e6572600082015250565b7f57726f6e6720737472696e6720666f726d617420393a20000000000000000000600082015250565b7f57726f6e6720737472696e6720666f726d61742031373a200000000000000000600082015250565b7f57726f6e6720737472696e6720666f726d61742031363a200000000000000000600082015250565b7f57726f6e6720737472696e6720666f726d61742032303a200000000000000000600082015250565b7f57726f6e6720737472696e6720666f726d617420383a20000000000000000000600082015250565b7f57726f6e6720737472696e6720666f726d617420373a20000000000000000000600082015250565b7f57726f6e6720737472696e6720666f726d61742031383a200000000000000000600082015250565b7f57726f6e6720737472696e6720666f726d617420333a20000000000000000000600082015250565b7f57726f6e6720737472696e6720666f726d61742031323a200000000000000000600082015250565b7f57726f6e6720737472696e6720666f726d61742031333a200000000000000000600082015250565b7f7061796d656e74206e6f742073756666696369656e7400000000000000000000600082015250565b7f57726f6e6720737472696e6720666f726d61742031303a200000000000000000600082015250565b613a0d816133d8565b8114613a1857600080fd5b50565b613a24816133ea565b8114613a2f57600080fd5b50565b613a3b81613422565b8114613a4657600080fd5b5056fea26469706673582212206ca4b7bc05d934fb1606ebb08a5fa82248ea18d3e8abecb8c8990d4aeace134b64736f6c63430008010033",
  "linkReferences": {},
  "deployedLinkReferences": {}
}