{
  "_format": "hh-sol-artifact-1",
  "contractName": "_5x5guys",
  "sourceName": "contracts/5x5guys.sol",
  "abi": [
    {
      "inputs": [],
      "stateMutability": "nonpayable",
      "type": "constructor"
    },
    {
      "anonymous": false,
      "inputs": [
        {
          "indexed": true,
          "internalType": "address",
          "name": "previousOwner",
          "type": "address"
        },
        {
          "indexed": true,
          "internalType": "address",
          "name": "newOwner",
          "type": "address"
        }
      ],
      "name": "OwnershipTransferred",
      "type": "event"
    },
    {
      "inputs": [
        {
          "internalType": "bytes32",
          "name": "_bytes32",
          "type": "bytes32"
        }
      ],
      "name": "bytes32ToString",
      "outputs": [
        {
          "internalType": "string",
          "name": "",
          "type": "string"
        }
      ],
      "stateMutability": "pure",
      "type": "function"
    },
    {
      "inputs": [
        {
          "internalType": "uint256",
          "name": "new_cost",
          "type": "uint256"
        }
      ],
      "name": "change_minting_cost",
      "outputs": [],
      "stateMutability": "nonpayable",
      "type": "function"
    },
    {
      "inputs": [],
      "name": "get_minting_cost",
      "outputs": [
        {
          "internalType": "uint256",
          "name": "",
          "type": "uint256"
        }
      ],
      "stateMutability": "view",
      "type": "function"
    },
    {
      "inputs": [
        {
          "internalType": "string",
          "name": "str",
          "type": "string"
        }
      ],
      "name": "mint_5x5guy",
      "outputs": [
        {
          "internalType": "uint256",
          "name": "",
          "type": "uint256"
        }
      ],
      "stateMutability": "payable",
      "type": "function"
    },
    {
      "inputs": [],
      "name": "owner",
      "outputs": [
        {
          "internalType": "address",
          "name": "",
          "type": "address"
        }
      ],
      "stateMutability": "view",
      "type": "function"
    },
    {
      "inputs": [],
      "name": "renounceOwnership",
      "outputs": [],
      "stateMutability": "nonpayable",
      "type": "function"
    },
    {
      "inputs": [
        {
          "internalType": "string",
          "name": "str",
          "type": "string"
        }
      ],
      "name": "string_to_array",
      "outputs": [
        {
          "internalType": "string[]",
          "name": "",
          "type": "string[]"
        }
      ],
      "stateMutability": "pure",
      "type": "function"
    },
    {
      "inputs": [
        {
          "internalType": "address",
          "name": "newOwner",
          "type": "address"
        }
      ],
      "name": "transferOwnership",
      "outputs": [],
      "stateMutability": "nonpayable",
      "type": "function"
    },
    {
      "inputs": [
        {
          "internalType": "uint256",
          "name": "amt",
          "type": "uint256"
        }
      ],
      "name": "withdraw",
      "outputs": [],
      "stateMutability": "nonpayable",
      "type": "function"
    }
  ],
  "bytecode": "0x6080604052600180547320111434640cded801f3c170fde4a4934defb41a6001600160a01b03199182161791829055600280546001600160a01b03909316929091169190911761ffff60a01b19166115b360a01b1761ffff60b01b19169055600060035534801561006f57600080fd5b5061008061007b610085565b610089565b6100d9565b3390565b600080546001600160a01b038381166001600160a01b0319831681178455604051919092169283917f8be0079c531659141344cd1fd0a4f28419497f9722a3daafe3b4186f6b6457e09190a35050565b6122a180620000e96000396000f3fe6080604052600436106100765760003560e01c80632e1a7d4d1461007b578063715018a61461009d57806374a1ce05146100b25780638da5cb5b146100e85780639201de551461010a578063af827af614610137578063b5ee622b14610157578063ddb2ea661461016c578063f2fde38b1461018c575b600080fd5b34801561008757600080fd5b5061009b610096366004611a24565b6101ac565b005b3480156100a957600080fd5b5061009b610245565b3480156100be57600080fd5b506100d26100cd366004611a3c565b610290565b6040516100df9190611fd4565b60405180910390f35b3480156100f457600080fd5b506100fd61037f565b6040516100df9190611f9c565b34801561011657600080fd5b5061012a610125366004611a24565b61038e565b6040516100df9190612034565b61014a610145366004611a3c565b61050a565b6040516100df919061214d565b34801561016357600080fd5b5061014a611865565b34801561017857600080fd5b5061009b610187366004611a24565b6118f4565b34801561019857600080fd5b5061009b6101a73660046119fd565b611938565b6101b46119a9565b6001600160a01b03166101c561037f565b6001600160a01b0316146101f45760405162461bcd60e51b81526004016101eb906120e8565b60405180910390fd5b4781111561020157600080fd5b61020961037f565b6001600160a01b03166108fc829081150290604051600060405180830381858888f19350505050158015610241573d6000803e3d6000fd5b5050565b61024d6119a9565b6001600160a01b031661025e61037f565b6001600160a01b0316146102845760405162461bcd60e51b81526004016101eb906120e8565b61028e60006119ad565b565b60606000829050600081516001600160401b038111156102c057634e487b7160e01b600052604160045260246000fd5b6040519080825280602002602001820160405280156102f357816020015b60608152602001906001900390816102de5790505b50905060005b82518110156103775761033983828151811061032557634e487b7160e01b600052603260045260246000fd5b01602001516001600160f81b03191661038e565b82828151811061035957634e487b7160e01b600052603260045260246000fd5b6020026020010181905250808061036f906121c4565b9150506102f9565b509392505050565b6000546001600160a01b031690565b606060005b60208160ff161080156103d55750828160ff16602081106103c457634e487b7160e01b600052603260045260246000fd5b1a60f81b6001600160f81b03191615155b156103ec57806103e4816121df565b915050610393565b60008160ff166001600160401b0381111561041757634e487b7160e01b600052604160045260246000fd5b6040519080825280601f01601f191660200182016040528015610441576020820181803683370190505b509050600091505b60208260ff1610801561048b5750838260ff166020811061047a57634e487b7160e01b600052603260045260246000fd5b1a60f81b6001600160f81b03191615155b1561050357838260ff16602081106104b357634e487b7160e01b600052603260045260246000fd5b1a60f81b818360ff16815181106104da57634e487b7160e01b600052603260045260246000fd5b60200101906001600160f81b031916908160001a905350816104fb816121df565b925050610449565b9392505050565b6003546002546040805163b5ee622b60e01b81529051600093926001600160a01b03169163b5ee622b916004808301926020929190829003018186803b15801561055357600080fd5b505afa158015610567573d6000803e3d6000fd5b505050506040513d601f19601f8201168201806040525081019061058b9190611ae5565b610595919061217c565b3410156105b45760405162461bcd60e51b81526004016101eb9061211d565b60025461ffff600160a01b82048116600160b01b90920416106105e95760405162461bcd60e51b81526004016101eb90612047565b60006105f483610290565b9050604051806040016040528060018152602001600160fd1b815250805190602001208160008151811061063857634e487b7160e01b600052603260045260246000fd5b602002602001015180519060200120148160008151811061066957634e487b7160e01b600052603260045260246000fd5b60200260200101516040516020016106819190611b68565b604051602081830303815290604052906106ae5760405162461bcd60e51b81526004016101eb9190612034565b50604051806040016040528060018152602001600160fd1b81525080519060200120816001815181106106f157634e487b7160e01b600052603260045260246000fd5b602002602001015180519060200120148160018151811061072257634e487b7160e01b600052603260045260246000fd5b602002602001015160405160200161073a9190611c72565b604051602081830303815290604052906107675760405162461bcd60e51b81526004016101eb9190612034565b506040805180820190915260018152600160fd1b602090910152805160008051602061222c83398151915290829060079081106107b457634e487b7160e01b600052603260045260246000fd5b60200260200101518051906020012014816007815181106107e557634e487b7160e01b600052603260045260246000fd5b60200260200101516040516020016107fd9190611ed1565b6040516020818303038152906040529061082a5760405162461bcd60e51b81526004016101eb9190612034565b506040805180820190915260018152600560f91b602090910152805160008051602061224c833981519152908290600890811061087757634e487b7160e01b600052603260045260246000fd5b60200260200101518051906020012014816008815181106108a857634e487b7160e01b600052603260045260246000fd5b60200260200101516040516020016108c09190611b29565b604051602081830303815290604052906108ed5760405162461bcd60e51b81526004016101eb9190612034565b506040805180820190915260018152600160fd1b602090910152805160008051602061222c833981519152908290600990811061093a57634e487b7160e01b600052603260045260246000fd5b602002602001015180519060200120148160098151811061096b57634e487b7160e01b600052603260045260246000fd5b60200260200101516040516020016109839190611c0d565b604051602081830303815290604052906109b05760405162461bcd60e51b81526004016101eb9190612034565b506040805180820190915260018152600560f91b602090910152805160008051602061224c83398151915290829060119081106109fd57634e487b7160e01b600052603260045260246000fd5b6020026020010151805190602001201481601181518110610a2e57634e487b7160e01b600052603260045260246000fd5b6020026020010151604051602001610a469190611d3d565b60405160208183030381529060405290610a735760405162461bcd60e51b81526004016101eb9190612034565b506040805180820190915260018152600560f91b602090910152805160008051602061224c833981519152908290601a908110610ac057634e487b7160e01b600052603260045260246000fd5b6020026020010151805190602001201481601a81518110610af157634e487b7160e01b600052603260045260246000fd5b6020026020010151604051602001610b099190611e6c565b60405160208183030381529060405290610b365760405162461bcd60e51b81526004016101eb9190612034565b506040805180820190915260018152600560f91b602090910152805160008051602061224c8339815191529082906023908110610b8357634e487b7160e01b600052603260045260246000fd5b6020026020010151805190602001201481602381518110610bb457634e487b7160e01b600052603260045260246000fd5b6020026020010151604051602001610bcc9190611e3a565b60405160208183030381529060405290610bf95760405162461bcd60e51b81526004016101eb9190612034565b506040805180820190915260018152600160fd1b602090910152805160008051602061222c8339815191529082906027908110610c4657634e487b7160e01b600052603260045260246000fd5b6020026020010151805190602001201481602781518110610c7757634e487b7160e01b600052603260045260246000fd5b6020026020010151604051602001610c8f9190611d6f565b60405160208183030381529060405290610cbc5760405162461bcd60e51b81526004016101eb9190612034565b506040805180820190915260018152600160fd1b602090910152805160008051602061222c8339815191529082906028908110610d0957634e487b7160e01b600052603260045260246000fd5b6020026020010151805190602001201481602881518110610d3a57634e487b7160e01b600052603260045260246000fd5b6020026020010151604051602001610d529190611f69565b60405160208183030381529060405290610d7f5760405162461bcd60e51b81526004016101eb9190612034565b506040805180820190915260018152601f60f91b60209091015280517feff31f7855752a3582db9a0d965d5063f23d94003e66f8c5a8f8e8fe2ab247539082906029908110610dde57634e487b7160e01b600052603260045260246000fd5b6020026020010151805190602001201481602981518110610e0f57634e487b7160e01b600052603260045260246000fd5b6020026020010151604051602001610e279190611ca4565b60405160208183030381529060405290610e545760405162461bcd60e51b81526004016101eb9190612034565b506040805180820190915260018152600560f91b602090910152805160008051602061224c833981519152908290602c908110610ea157634e487b7160e01b600052603260045260246000fd5b6020026020010151805190602001201481602c81518110610ed257634e487b7160e01b600052603260045260246000fd5b6020026020010151604051602001610eea9190611f03565b60405160208183030381529060405290610f175760405162461bcd60e51b81526004016101eb9190612034565b506040805180820190915260018152600560f91b602090910152805160008051602061224c8339815191529082906035908110610f6457634e487b7160e01b600052603260045260246000fd5b6020026020010151805190602001201481603581518110610f9557634e487b7160e01b600052603260045260246000fd5b6020026020010151604051602001610fad9190611f36565b60405160208183030381529060405290610fda5760405162461bcd60e51b81526004016101eb9190612034565b506040805180820190915260018152600360fd1b60209091015280517f15a5de5d00dfc39d199ee772e89858c204d1d545de092db54a345c7303942607908290603890811061103957634e487b7160e01b600052603260045260246000fd5b602002602001015180519060200120148160388151811061106a57634e487b7160e01b600052603260045260246000fd5b60200260200101516040516020016110829190611bda565b604051602081830303815290604052906110af5760405162461bcd60e51b81526004016101eb9190612034565b506040805180820190915260018152600160fd1b602090910152805160008051602061222c833981519152908290603d9081106110fc57634e487b7160e01b600052603260045260246000fd5b6020026020010151805190602001201481603d8151811061112d57634e487b7160e01b600052603260045260246000fd5b60200260200101516040516020016111459190611cd7565b604051602081830303815290604052906111725760405162461bcd60e51b81526004016101eb9190612034565b506040805180820190915260018152600560f91b602090910152805160008051602061224c833981519152908290603e9081106111bf57634e487b7160e01b600052603260045260246000fd5b6020026020010151805190602001201481603e815181106111f057634e487b7160e01b600052603260045260246000fd5b60200260200101516040516020016112089190611dd4565b604051602081830303815290604052906112355760405162461bcd60e51b81526004016101eb9190612034565b506040805180820190915260018152600160fd1b602090910152805160008051602061222c833981519152908290603f90811061128257634e487b7160e01b600052603260045260246000fd5b6020026020010151805190602001201481603f815181106112b357634e487b7160e01b600052603260045260246000fd5b60200260200101516040516020016112cb9190611da1565b604051602081830303815290604052906112f85760405162461bcd60e51b81526004016101eb9190612034565b5060408051808201825260018152600160fd1b602090910152815160008051602061222c833981519152918391811061134157634e487b7160e01b600052603260045260246000fd5b602002602001015180519060200120148160408151811061137257634e487b7160e01b600052603260045260246000fd5b602002602001015160405160200161138a9190611e9e565b604051602081830303815290604052906113b75760405162461bcd60e51b81526004016101eb9190612034565b506040805180820190915260018152600160fd1b602090910152805160008051602061222c833981519152908290604190811061140457634e487b7160e01b600052603260045260246000fd5b602002602001015180519060200120148160418151811061143557634e487b7160e01b600052603260045260246000fd5b602002602001015160405160200161144d9190611d0a565b6040516020818303038152906040529061147a5760405162461bcd60e51b81526004016101eb9190612034565b506040805180820190915260018152600160fd1b602090910152805160008051602061222c83398151915290829060429081106114c757634e487b7160e01b600052603260045260246000fd5b60200260200101518051906020012014816042815181106114f857634e487b7160e01b600052603260045260246000fd5b60200260200101516040516020016115109190611e07565b6040516020818303038152906040529061153d5760405162461bcd60e51b81526004016101eb9190612034565b506040805180820190915260018152600160fd1b602090910152805160008051602061222c833981519152908290604590811061158a57634e487b7160e01b600052603260045260246000fd5b60200260200101518051906020012014816045815181106115bb57634e487b7160e01b600052603260045260246000fd5b60200260200101516040516020016115d39190611b9a565b604051602081830303815290604052906116005760405162461bcd60e51b81526004016101eb9190612034565b506040805180820190915260018152600160fd1b602090910152805160008051602061222c833981519152908290604690811061164d57634e487b7160e01b600052603260045260246000fd5b602002602001015180519060200120148160468151811061167e57634e487b7160e01b600052603260045260246000fd5b60200260200101516040516020016116969190611c3f565b604051602081830303815290604052906116c35760405162461bcd60e51b81526004016101eb9190612034565b506001600260168282829054906101000a900461ffff166116e49190612156565b825461ffff9182166101009390930a9283029190920219909116179055506002546040805163b5ee622b60e01b815290516000926001600160a01b031691638d2e41e591839163b5ee622b916004808301926020929190829003018186803b15801561174f57600080fd5b505afa158015611763573d6000803e3d6000fd5b505050506040513d601f19601f820116820180604052508101906117879190611ae5565b866040518363ffffffff1660e01b81526004016117a49190612034565b6020604051808303818588803b1580156117bd57600080fd5b505af11580156117d1573d6000803e3d6000fd5b50505050506040513d601f19601f820116820180604052508101906117f69190611ae5565b6002546040516323b872dd60e01b81529192506001600160a01b0316906323b872dd9061182b90309033908690600401611fb0565b600060405180830381600087803b15801561184557600080fd5b505af1158015611859573d6000803e3d6000fd5b50929695505050505050565b6002546040805163b5ee622b60e01b815290516000926001600160a01b03169163b5ee622b916004808301926020929190829003018186803b1580156118aa57600080fd5b505afa1580156118be573d6000803e3d6000fd5b505050506040513d601f19601f820116820180604052508101906118e29190611ae5565b6003546118ef919061217c565b905090565b6118fc6119a9565b6001600160a01b031661190d61037f565b6001600160a01b0316146119335760405162461bcd60e51b81526004016101eb906120e8565b600355565b6119406119a9565b6001600160a01b031661195161037f565b6001600160a01b0316146119775760405162461bcd60e51b81526004016101eb906120e8565b6001600160a01b03811661199d5760405162461bcd60e51b81526004016101eb906120a2565b6119a6816119ad565b50565b3390565b600080546001600160a01b038381166001600160a01b0319831681178455604051919092169283917f8be0079c531659141344cd1fd0a4f28419497f9722a3daafe3b4186f6b6457e09190a35050565b600060208284031215611a0e578081fd5b81356001600160a01b0381168114610503578182fd5b600060208284031215611a35578081fd5b5035919050565b600060208284031215611a4d578081fd5b81356001600160401b0380821115611a63578283fd5b818401915084601f830112611a76578283fd5b813581811115611a8857611a88612215565b604051601f8201601f19908116603f01168101908382118183101715611ab057611ab0612215565b81604052828152876020848701011115611ac8578586fd5b826020860160208301379182016020019490945295945050505050565b600060208284031215611af6578081fd5b5051919050565b60008151808452611b15816020860160208601612194565b601f01601f19169290920160200192915050565b60007602bb937b7339039ba3934b733903337b936b0ba101a1d1604d1b82528251611b5b816017850160208701612194565b9190910160170192915050565b60007602bb937b7339039ba3934b733903337b936b0ba10189d1604d1b82528251611b5b816017850160208701612194565b60007702bb937b7339039ba3934b733903337b936b0ba1019189d160451b82528251611bcd816018850160208701612194565b9190910160180192915050565b60007702bb937b7339039ba3934b733903337b936b0ba10189a1d160451b82528251611bcd816018850160208701612194565b60007602bb937b7339039ba3934b733903337b936b0ba101a9d1604d1b82528251611b5b816017850160208701612194565b60007702bb937b7339039ba3934b733903337b936b0ba1019191d160451b82528251611bcd816018850160208701612194565b60007602bb937b7339039ba3934b733903337b936b0ba10191d1604d1b82528251611b5b816017850160208701612194565b60007702bb937b7339039ba3934b733903337b936b0ba1018989d160451b82528251611bcd816018850160208701612194565b60007702bb937b7339039ba3934b733903337b936b0ba10189a9d160451b82528251611bcd816018850160208701612194565b60007702bb937b7339039ba3934b733903337b936b0ba10189c9d160451b82528251611bcd816018850160208701612194565b60007602bb937b7339039ba3934b733903337b936b0ba101b1d1604d1b82528251611b5b816017850160208701612194565b60007602bb937b7339039ba3934b733903337b936b0ba101c9d1604d1b82528251611b5b816017850160208701612194565b60007702bb937b7339039ba3934b733903337b936b0ba10189b9d160451b82528251611bcd816018850160208701612194565b60007702bb937b7339039ba3934b733903337b936b0ba10189b1d160451b82528251611bcd816018850160208701612194565b60007702bb937b7339039ba3934b733903337b936b0ba1019181d160451b82528251611bcd816018850160208701612194565b60007602bb937b7339039ba3934b733903337b936b0ba101c1d1604d1b82528251611b5b816017850160208701612194565b60007602bb937b7339039ba3934b733903337b936b0ba101b9d1604d1b82528251611b5b816017850160208701612194565b60007702bb937b7339039ba3934b733903337b936b0ba10189c1d160451b82528251611bcd816018850160208701612194565b60007602bb937b7339039ba3934b733903337b936b0ba10199d1604d1b82528251611b5b816017850160208701612194565b60007702bb937b7339039ba3934b733903337b936b0ba1018991d160451b82528251611bcd816018850160208701612194565b60007702bb937b7339039ba3934b733903337b936b0ba1018999d160451b82528251611bcd816018850160208701612194565b60007702bb937b7339039ba3934b733903337b936b0ba1018981d160451b82528251611bcd816018850160208701612194565b6001600160a01b0391909116815260200190565b6001600160a01b039384168152919092166020820152604081019190915260600190565b6000602080830181845280855180835260408601915060408482028701019250838701855b8281101561202757603f19888603018452612015858351611afd565b94509285019290850190600101611ff9565b5092979650505050505050565b6000602082526105036020830184611afd565b6020808252603b908201527f6d617820737570706c7920686173206265656e207265616368656421206e6f2060408201527a1b5bdc99480d5e0d59dd5e5cc818d85b8818994818dc99585d1959602a1b606082015260800190565b60208082526026908201527f4f776e61626c653a206e6577206f776e657220697320746865207a65726f206160408201526564647265737360d01b606082015260800190565b6020808252818101527f4f776e61626c653a2063616c6c6572206973206e6f7420746865206f776e6572604082015260600190565b6020808252601690820152751c185e5b595b9d081b9bdd081cdd59999a58da595b9d60521b604082015260600190565b90815260200190565b600061ffff808316818516808303821115612173576121736121ff565b01949350505050565b6000821982111561218f5761218f6121ff565b500190565b60005b838110156121af578181015183820152602001612197565b838111156121be576000848401525b50505050565b60006000198214156121d8576121d86121ff565b5060010190565b600060ff821660ff8114156121f6576121f66121ff565b60010192915050565b634e487b7160e01b600052601160045260246000fd5b634e487b7160e01b600052604160045260246000fdfe681afa780d17da29203322b473d3f210a7d621259a4e6ce9e403f5a266ff719a0ef9d8f8804d174666011a394cab7901679a8944d24249fd148a6a36071151f8a2646970667358221220023d53a31c6d9701ed4991b7f19f994bf41f236b49bb4eaef735cae7fcd8e23364736f6c63430008010033",
  "linkReferences": {},
  "deployedLinkReferences": {}
}