{
  "_format": "hh-sol-artifact-1",
  "contractName": "InWriting",
  "sourceName": "contracts/inWriting.sol",
  "abi": [
    {
      "inputs": [],
      "stateMutability": "nonpayable",
      "type": "constructor"
    },
    {
      "anonymous": false,
      "inputs": [
        {
          "indexed": false,
          "internalType": "uint256",
          "name": "tokenId",
          "type": "uint256"
        },
        {
          "indexed": false,
          "internalType": "address",
          "name": "addr",
          "type": "address"
        }
      ],
      "name": "Appended",
      "type": "event"
    },
    {
      "anonymous": false,
      "inputs": [
        {
          "indexed": true,
          "internalType": "address",
          "name": "owner",
          "type": "address"
        },
        {
          "indexed": true,
          "internalType": "address",
          "name": "approved",
          "type": "address"
        },
        {
          "indexed": true,
          "internalType": "uint256",
          "name": "tokenId",
          "type": "uint256"
        }
      ],
      "name": "Approval",
      "type": "event"
    },
    {
      "anonymous": false,
      "inputs": [
        {
          "indexed": true,
          "internalType": "address",
          "name": "owner",
          "type": "address"
        },
        {
          "indexed": true,
          "internalType": "address",
          "name": "operator",
          "type": "address"
        },
        {
          "indexed": false,
          "internalType": "bool",
          "name": "approved",
          "type": "bool"
        }
      ],
      "name": "ApprovalForAll",
      "type": "event"
    },
    {
      "anonymous": false,
      "inputs": [
        {
          "indexed": false,
          "internalType": "uint256",
          "name": "tokenId",
          "type": "uint256"
        },
        {
          "indexed": false,
          "internalType": "uint256",
          "name": "price",
          "type": "uint256"
        }
      ],
      "name": "Bought",
      "type": "event"
    },
    {
      "anonymous": false,
      "inputs": [
        {
          "indexed": false,
          "internalType": "uint256",
          "name": "tokenId",
          "type": "uint256"
        },
        {
          "indexed": false,
          "internalType": "uint256",
          "name": "price",
          "type": "uint256"
        }
      ],
      "name": "Listed",
      "type": "event"
    },
    {
      "anonymous": false,
      "inputs": [
        {
          "indexed": true,
          "internalType": "address",
          "name": "previousOwner",
          "type": "address"
        },
        {
          "indexed": true,
          "internalType": "address",
          "name": "newOwner",
          "type": "address"
        }
      ],
      "name": "OwnershipTransferred",
      "type": "event"
    },
    {
      "anonymous": false,
      "inputs": [
        {
          "indexed": true,
          "internalType": "address",
          "name": "from",
          "type": "address"
        },
        {
          "indexed": true,
          "internalType": "address",
          "name": "to",
          "type": "address"
        },
        {
          "indexed": true,
          "internalType": "uint256",
          "name": "tokenId",
          "type": "uint256"
        }
      ],
      "name": "Transfer",
      "type": "event"
    },
    {
      "inputs": [
        {
          "internalType": "uint256",
          "name": "tokenId",
          "type": "uint256"
        },
        {
          "internalType": "string",
          "name": "str",
          "type": "string"
        }
      ],
      "name": "append_to_NFT",
      "outputs": [],
      "stateMutability": "nonpayable",
      "type": "function"
    },
    {
      "inputs": [
        {
          "internalType": "address",
          "name": "to",
          "type": "address"
        },
        {
          "internalType": "uint256",
          "name": "tokenId",
          "type": "uint256"
        }
      ],
      "name": "approve",
      "outputs": [],
      "stateMutability": "nonpayable",
      "type": "function"
    },
    {
      "inputs": [
        {
          "internalType": "address",
          "name": "owner",
          "type": "address"
        }
      ],
      "name": "balanceOf",
      "outputs": [
        {
          "internalType": "uint256",
          "name": "",
          "type": "uint256"
        }
      ],
      "stateMutability": "view",
      "type": "function"
    },
    {
      "inputs": [
        {
          "internalType": "uint256",
          "name": "tokenId",
          "type": "uint256"
        }
      ],
      "name": "buy",
      "outputs": [
        {
          "internalType": "bool",
          "name": "",
          "type": "bool"
        }
      ],
      "stateMutability": "payable",
      "type": "function"
    },
    {
      "inputs": [
        {
          "internalType": "string",
          "name": "desc",
          "type": "string"
        }
      ],
      "name": "change_description",
      "outputs": [],
      "stateMutability": "nonpayable",
      "type": "function"
    },
    {
      "inputs": [
        {
          "internalType": "string",
          "name": "url",
          "type": "string"
        }
      ],
      "name": "change_external_url",
      "outputs": [],
      "stateMutability": "nonpayable",
      "type": "function"
    },
    {
      "inputs": [
        {
          "internalType": "string",
          "name": "str",
          "type": "string"
        }
      ],
      "name": "change_image_url",
      "outputs": [],
      "stateMutability": "nonpayable",
      "type": "function"
    },
    {
      "inputs": [
        {
          "internalType": "string",
          "name": "str",
          "type": "string"
        }
      ],
      "name": "check_if_used",
      "outputs": [
        {
          "internalType": "bool",
          "name": "",
          "type": "bool"
        }
      ],
      "stateMutability": "view",
      "type": "function"
    },
    {
      "inputs": [
        {
          "internalType": "uint256",
          "name": "tokenId",
          "type": "uint256"
        }
      ],
      "name": "delist_for_sale",
      "outputs": [
        {
          "internalType": "bool",
          "name": "",
          "type": "bool"
        }
      ],
      "stateMutability": "nonpayable",
      "type": "function"
    },
    {
      "inputs": [
        {
          "internalType": "uint256",
          "name": "tokenId",
          "type": "uint256"
        }
      ],
      "name": "getApproved",
      "outputs": [
        {
          "internalType": "address",
          "name": "",
          "type": "address"
        }
      ],
      "stateMutability": "view",
      "type": "function"
    },
    {
      "inputs": [],
      "name": "get_buying_cost",
      "outputs": [
        {
          "internalType": "uint256",
          "name": "",
          "type": "uint256"
        }
      ],
      "stateMutability": "view",
      "type": "function"
    },
    {
      "inputs": [],
      "name": "get_minting_cost",
      "outputs": [
        {
          "internalType": "uint256",
          "name": "",
          "type": "uint256"
        }
      ],
      "stateMutability": "view",
      "type": "function"
    },
    {
      "inputs": [
        {
          "internalType": "uint256",
          "name": "tokenId",
          "type": "uint256"
        }
      ],
      "name": "get_price",
      "outputs": [
        {
          "internalType": "uint256",
          "name": "",
          "type": "uint256"
        }
      ],
      "stateMutability": "view",
      "type": "function"
    },
    {
      "inputs": [
        {
          "internalType": "uint256",
          "name": "tokenId",
          "type": "uint256"
        }
      ],
      "name": "get_string",
      "outputs": [
        {
          "internalType": "string",
          "name": "",
          "type": "string"
        }
      ],
      "stateMutability": "view",
      "type": "function"
    },
    {
      "inputs": [
        {
          "internalType": "address",
          "name": "owner",
          "type": "address"
        },
        {
          "internalType": "address",
          "name": "operator",
          "type": "address"
        }
      ],
      "name": "isApprovedForAll",
      "outputs": [
        {
          "internalType": "bool",
          "name": "",
          "type": "bool"
        }
      ],
      "stateMutability": "view",
      "type": "function"
    },
    {
      "inputs": [
        {
          "internalType": "uint256",
          "name": "tokenId",
          "type": "uint256"
        },
        {
          "internalType": "uint256",
          "name": "price",
          "type": "uint256"
        }
      ],
      "name": "list_for_sale",
      "outputs": [
        {
          "internalType": "bool",
          "name": "",
          "type": "bool"
        }
      ],
      "stateMutability": "nonpayable",
      "type": "function"
    },
    {
      "inputs": [
        {
          "internalType": "uint256",
          "name": "tokenId",
          "type": "uint256"
        }
      ],
      "name": "lock_NFT",
      "outputs": [],
      "stateMutability": "nonpayable",
      "type": "function"
    },
    {
      "inputs": [
        {
          "internalType": "string",
          "name": "str",
          "type": "string"
        }
      ],
      "name": "mint_NFT",
      "outputs": [
        {
          "internalType": "uint256",
          "name": "",
          "type": "uint256"
        }
      ],
      "stateMutability": "payable",
      "type": "function"
    },
    {
      "inputs": [
        {
          "internalType": "string",
          "name": "str",
          "type": "string"
        },
        {
          "internalType": "uint256",
          "name": "price",
          "type": "uint256"
        }
      ],
      "name": "mint_and_list_NFT",
      "outputs": [
        {
          "internalType": "uint256",
          "name": "",
          "type": "uint256"
        }
      ],
      "stateMutability": "payable",
      "type": "function"
    },
    {
      "inputs": [
        {
          "internalType": "string",
          "name": "str",
          "type": "string"
        },
        {
          "internalType": "uint256",
          "name": "price",
          "type": "uint256"
        }
      ],
      "name": "mint_and_list_unlocked_NFT",
      "outputs": [
        {
          "internalType": "uint256",
          "name": "",
          "type": "uint256"
        }
      ],
      "stateMutability": "payable",
      "type": "function"
    },
    {
      "inputs": [
        {
          "internalType": "string",
          "name": "str",
          "type": "string"
        }
      ],
      "name": "mint_unlocked_NFT",
      "outputs": [
        {
          "internalType": "uint256",
          "name": "",
          "type": "uint256"
        }
      ],
      "stateMutability": "payable",
      "type": "function"
    },
    {
      "inputs": [],
      "name": "name",
      "outputs": [
        {
          "internalType": "string",
          "name": "",
          "type": "string"
        }
      ],
      "stateMutability": "view",
      "type": "function"
    },
    {
      "inputs": [],
      "name": "owner",
      "outputs": [
        {
          "internalType": "address",
          "name": "",
          "type": "address"
        }
      ],
      "stateMutability": "view",
      "type": "function"
    },
    {
      "inputs": [
        {
          "internalType": "uint256",
          "name": "tokenId",
          "type": "uint256"
        }
      ],
      "name": "ownerOf",
      "outputs": [
        {
          "internalType": "address",
          "name": "",
          "type": "address"
        }
      ],
      "stateMutability": "view",
      "type": "function"
    },
    {
      "inputs": [],
      "name": "renounceOwnership",
      "outputs": [],
      "stateMutability": "nonpayable",
      "type": "function"
    },
    {
      "inputs": [
        {
          "internalType": "address",
          "name": "from",
          "type": "address"
        },
        {
          "internalType": "address",
          "name": "to",
          "type": "address"
        },
        {
          "internalType": "uint256",
          "name": "tokenId",
          "type": "uint256"
        }
      ],
      "name": "safeTransferFrom",
      "outputs": [],
      "stateMutability": "nonpayable",
      "type": "function"
    },
    {
      "inputs": [
        {
          "internalType": "address",
          "name": "from",
          "type": "address"
        },
        {
          "internalType": "address",
          "name": "to",
          "type": "address"
        },
        {
          "internalType": "uint256",
          "name": "tokenId",
          "type": "uint256"
        },
        {
          "internalType": "bytes",
          "name": "_data",
          "type": "bytes"
        }
      ],
      "name": "safeTransferFrom",
      "outputs": [],
      "stateMutability": "nonpayable",
      "type": "function"
    },
    {
      "inputs": [
        {
          "internalType": "address",
          "name": "operator",
          "type": "address"
        },
        {
          "internalType": "bool",
          "name": "approved",
          "type": "bool"
        }
      ],
      "name": "setApprovalForAll",
      "outputs": [],
      "stateMutability": "nonpayable",
      "type": "function"
    },
    {
      "inputs": [
        {
          "internalType": "bytes4",
          "name": "interfaceId",
          "type": "bytes4"
        }
      ],
      "name": "supportsInterface",
      "outputs": [
        {
          "internalType": "bool",
          "name": "",
          "type": "bool"
        }
      ],
      "stateMutability": "view",
      "type": "function"
    },
    {
      "inputs": [],
      "name": "symbol",
      "outputs": [
        {
          "internalType": "string",
          "name": "",
          "type": "string"
        }
      ],
      "stateMutability": "view",
      "type": "function"
    },
    {
      "inputs": [
        {
          "internalType": "uint256",
          "name": "tokenId",
          "type": "uint256"
        }
      ],
      "name": "tokenURI",
      "outputs": [
        {
          "internalType": "string",
          "name": "",
          "type": "string"
        }
      ],
      "stateMutability": "view",
      "type": "function"
    },
    {
      "inputs": [],
      "name": "totalSupply",
      "outputs": [
        {
          "internalType": "uint256",
          "name": "",
          "type": "uint256"
        }
      ],
      "stateMutability": "view",
      "type": "function"
    },
    {
      "inputs": [
        {
          "internalType": "address",
          "name": "from",
          "type": "address"
        },
        {
          "internalType": "address",
          "name": "to",
          "type": "address"
        },
        {
          "internalType": "uint256",
          "name": "tokenId",
          "type": "uint256"
        }
      ],
      "name": "transferFrom",
      "outputs": [],
      "stateMutability": "nonpayable",
      "type": "function"
    },
    {
      "inputs": [
        {
          "internalType": "address",
          "name": "newOwner",
          "type": "address"
        }
      ],
      "name": "transferOwnership",
      "outputs": [],
      "stateMutability": "nonpayable",
      "type": "function"
    },
    {
      "inputs": [
        {
          "internalType": "uint256",
          "name": "newFee",
          "type": "uint256"
        }
      ],
      "name": "update_buying_cost",
      "outputs": [],
      "stateMutability": "nonpayable",
      "type": "function"
    },
    {
      "inputs": [
        {
          "internalType": "uint256",
          "name": "newCost",
          "type": "uint256"
        }
      ],
      "name": "update_minting_cost",
      "outputs": [],
      "stateMutability": "nonpayable",
      "type": "function"
    },
    {
      "inputs": [
        {
          "internalType": "uint256",
          "name": "amt",
          "type": "uint256"
        }
      ],
      "name": "withdraw",
      "outputs": [],
      "stateMutability": "nonpayable",
      "type": "function"
    }
  ],
  "bytecode": "0x60006008819055600d5560e06040526037608081815290620030fa60a03980516200003391600e9160209091019062000176565b506040805160208101918290526000908190526200005491600f9162000176565b5060405180606001604052806027815260200162003131602791398051620000859160109160209091019062000176565b503480156200009357600080fd5b5060405180604001604052806009815260200168496e57726974696e6760b81b81525060405180604001604052806005815260200164575249544560d81b815250620000ee620000e86200012260201b60201c565b62000126565b81516200010390600190602085019062000176565b5080516200011990600290602084019062000176565b50505062000259565b3390565b600080546001600160a01b038381166001600160a01b0319831681178455604051919092169283917f8be0079c531659141344cd1fd0a4f28419497f9722a3daafe3b4186f6b6457e09190a35050565b82805462000184906200021c565b90600052602060002090601f016020900481019282620001a85760008555620001f3565b82601f10620001c357805160ff1916838001178555620001f3565b82800160010185558215620001f3579182015b82811115620001f3578251825591602001919060010190620001d6565b506200020192915062000205565b5090565b5b8082111562000201576000815560010162000206565b6002810460018216806200023157607f821691505b602082108114156200025357634e487b7160e01b600052602260045260246000fd5b50919050565b612e9180620002696000396000f3fe6080604052600436106101aa5760003560e01c806301b71aec146101af57806301ffc9a7146101e557806306fdde0314610205578063081812fc14610227578063095ea7b3146102545780630d110a8f146102765780630eb4d8cb1461029657806318160ddd146102b657806323b872dd146102cb57806328f4cc7c146102eb5780632ab8a2981461030b5780632e1a7d4d1461032b57806342842e0e1461034b5780634c24c4391461036b5780636352211e1461038b5780636eb02583146103ab57806370a08231146103be578063715018a6146103de5780637ea346ba146103f35780638044c0d414610408578063834ca100146104285780638d2e41e5146104485780638da5cb5b1461045b57806391126b0a1461047057806395d89b4114610490578063a22cb465146104a5578063a73a253f146104c5578063b5ee622b146104e5578063b88d4fde146104fa578063c87b56dd1461051a578063c99457d11461053a578063d93580ff1461054d578063d96a094a1461056d578063df30ea4614610580578063e985e9c5146105a0578063f1d14903146105c0578063f2fde38b146105e0575b600080fd5b3480156101bb57600080fd5b506101cf6101ca3660046120fd565b610600565b6040516101dc919061244a565b60405180910390f35b3480156101f157600080fd5b506101cf610200366004611ff5565b6106c0565b34801561021157600080fd5b5061021a610708565b6040516101dc9190612455565b34801561023357600080fd5b506102476102423660046120a1565b61079a565b6040516101dc91906123f9565b34801561026057600080fd5b5061027461026f366004611fcc565b6107dd565b005b34801561028257600080fd5b506102746102913660046120a1565b610875565b6102a96102a436600461205f565b6108b9565b6040516101dc9190612c1d565b3480156102c257600080fd5b506102a96108d9565b3480156102d757600080fd5b506102746102e6366004611edf565b6108ea565b3480156102f757600080fd5b5061027461030636600461202d565b610922565b34801561031757600080fd5b506101cf6103263660046120a1565b610978565b34801561033757600080fd5b506102746103463660046120a1565b610a1b565b34801561035757600080fd5b50610274610366366004611edf565b610aa7565b34801561037757600080fd5b506101cf61038636600461202d565b610ac2565b34801561039757600080fd5b506102476103a63660046120a1565b610aee565b6102a96103b936600461205f565b610b23565b3480156103ca57600080fd5b506102a96103d9366004611e93565b610b2f565b3480156103ea57600080fd5b50610274610b73565b3480156103ff57600080fd5b506102a9610bbe565b34801561041457600080fd5b506102746104233660046120a1565b610bc4565b34801561043457600080fd5b5061021a6104433660046120a1565b610c08565b6102a961045636600461202d565b610ccd565b34801561046757600080fd5b50610247610e04565b34801561047c57600080fd5b5061027461048b3660046120b9565b610e13565b34801561049c57600080fd5b5061021a611066565b3480156104b157600080fd5b506102746104c0366004611f92565b611075565b3480156104d157600080fd5b506102746104e036600461202d565b611087565b3480156104f157600080fd5b506102a96110d9565b34801561050657600080fd5b50610274610515366004611f1a565b6110df565b34801561052657600080fd5b5061021a6105353660046120a1565b61111e565b6102a961054836600461202d565b6111f8565b34801561055957600080fd5b506102a96105683660046120a1565b611225565b6101cf61057b3660046120a1565b61126c565b34801561058c57600080fd5b5061027461059b36600461202d565b6113ad565b3480156105ac57600080fd5b506101cf6105bb366004611ead565b6113ff565b3480156105cc57600080fd5b506102746105db3660046120a1565b61142d565b3480156105ec57600080fd5b506102746105fb366004611e93565b61146b565b6000816106285760405162461bcd60e51b815260040161061f90612b2c565b60405180910390fd5b61063183610aee565b6001600160a01b0316336001600160a01b0316146106615760405162461bcd60e51b815260040161061f90612b63565b61066c6000846107dd565b60008381526007602052604090819020839055517f1ea45e30b31292f9d7c5d37d275b2feca555f13f47dce0fdea2f47e8852ecd78906106af9085908590612c3d565b60405180910390a150600192915050565b60006001600160e01b031982166380ac58cd60e01b14806106f157506001600160e01b03198216635b5e139f60e01b145b806107005750610700826114dc565b90505b919050565b60606001805461071790612cd9565b80601f016020809104026020016040519081016040528092919081815260200182805461074390612cd9565b80156107905780601f1061076557610100808354040283529160200191610790565b820191906000526020600020905b81548152906001019060200180831161077357829003601f168201915b5050505050905090565b60006107a5826114f5565b6107c15760405162461bcd60e51b815260040161061f9061282a565b506000908152600560205260409020546001600160a01b031690565b60006107e882610aee565b9050806001600160a01b0316836001600160a01b0316141561081c5760405162461bcd60e51b815260040161061f906129d9565b806001600160a01b031661082e611512565b6001600160a01b0316148061084a575061084a816105bb611512565b6108665760405162461bcd60e51b815260040161061f906126bf565b6108708383611516565b505050565b61087d611512565b6001600160a01b031661088e610e04565b6001600160a01b0316146108b45760405162461bcd60e51b815260040161061f906128cb565b600855565b6000806108c584610ccd565b90506108d18184610600565b509392505050565b60006108e560096115b0565b905090565b6108fb6108f5611512565b826115b4565b6109175760405162461bcd60e51b815260040161061f90612a4b565b610870838383611639565b61092a611512565b6001600160a01b031661093b610e04565b6001600160a01b0316146109615760405162461bcd60e51b815260040161061f906128cb565b805161097490600e906020840190611d48565b5050565b6000818152600760205260408120546109a35760405162461bcd60e51b815260040161061f90612949565b6109ac82610aee565b6001600160a01b0316336001600160a01b0316146109dc5760405162461bcd60e51b815260040161061f90612468565b60008281526007602052604080822082905551600080516020612e1c83398151915291610a0b91859190612c3d565b60405180910390a1506001919050565b610a23611512565b6001600160a01b0316610a34610e04565b6001600160a01b031614610a5a5760405162461bcd60e51b815260040161061f906128cb565b47811115610a6757600080fd5b610a6f610e04565b6001600160a01b03166108fc829081150290604051600060405180830381858888f19350505050158015610974573d6000803e3d6000fd5b610870838383604051806020016040528060008152506110df565b6000600a82604051610ad491906121e4565b9081526040519081900360200190205460ff169050919050565b6000818152600360205260408120546001600160a01b0316806107005760405162461bcd60e51b815260040161061f906127ac565b6000806108c5846111f8565b60006001600160a01b038216610b575760405162461bcd60e51b815260040161061f90612762565b506001600160a01b031660009081526004602052604090205490565b610b7b611512565b6001600160a01b0316610b8c610e04565b6001600160a01b031614610bb25760405162461bcd60e51b815260040161061f906128cb565b610bbc6000611780565b565b60085490565b610bcc611512565b6001600160a01b0316610bdd610e04565b6001600160a01b031614610c035760405162461bcd60e51b815260040161061f906128cb565b600d55565b6060610c13826114f5565b610c2f5760405162461bcd60e51b815260040161061f90612a1a565b6000828152600b602052604090208054610c4890612cd9565b80601f0160208091040260200160405190810160405280929190818152602001828054610c7490612cd9565b8015610cc15780601f10610c9657610100808354040283529160200191610cc1565b820191906000526020600020905b815481529060010190602001808311610ca457829003601f168201915b50505050509050919050565b6000600d54341015610cf15760405162461bcd60e51b815260040161061f90612a9c565b600a82604051610d0191906121e4565b9081526040519081900360200190205460ff1615610d315760405162461bcd60e51b815260040161061f90612ba9565b6000610d3d60096115b0565b9050610d4960096117d0565b6000818152600b602090815260409091208451610d6892860190611d48565b506000818152600b6020526040908190209051600190600a90610d8c90849061222f565b908152604051908190036020019020805491151560ff19909216919091179055610db633836117d9565b600d54341115610dfd57600d5433906108fc90610dd39034612c96565b6040518115909202916000818181858888f19350505050158015610dfb573d6000803e3d6000fd5b505b5092915050565b6000546001600160a01b031690565b610e1c82610aee565b6001600160a01b0316336001600160a01b031614610e4c5760405162461bcd60e51b815260040161061f90612717565b6000828152600c602052604090205460ff16610e7a5760405162461bcd60e51b815260040161061f906125ad565b610e83826118a6565b15610ea05760405162461bcd60e51b815260040161061f90612876565b6000828152600b602052604081208054610eb990612cd9565b80601f0160208091040260200160405190810160405280929190818152602001828054610ee590612cd9565b8015610f325780601f10610f0757610100808354040283529160200191610f32565b820191906000526020600020905b815481529060010190602001808311610f1557829003601f168201915b5050505050905060008183604051602001610f4e929190612200565b6040516020818303038152906040529050600a81604051610f6f91906121e4565b9081526040519081900360200190205460ff1615610f9f5760405162461bcd60e51b815260040161061f90612ba9565b6000848152600b602090815260409091208251610fbe92840190611d48565b506000848152600b6020526040908190209051600190600a90610fe290849061222f565b908152604051908190036020018120805492151560ff1990931692909217909155600a906110119085906121e4565b908152604051908190036020018120805460ff191690557fb77ac2cf2bae3b1d3a17f92a68edca0b214181c2b72dbc133de7491fa2b55751906110579087903390612c26565b60405180910390a15050505050565b60606002805461071790612cd9565b610974611080611512565b83836118ba565b61108f611512565b6001600160a01b03166110a0610e04565b6001600160a01b0316146110c65760405162461bcd60e51b815260040161061f906128cb565b8051610974906010906020840190611d48565b600d5490565b6110f06110ea611512565b836115b4565b61110c5760405162461bcd60e51b815260040161061f90612a4b565b6111188484848461195d565b50505050565b60408051808201909152601d81527f646174613a6170706c69636174696f6e2f6a736f6e3b6261736536342c0000006020820152606090600061116084611990565b905060008161117661117187610c08565b611aaa565b601084600f86600e8860405160200161119092919061229e565b60408051601f19818403018152908290526111b3979695949392916020016122ba565b6040516020818303038152906040529050826111ce82611aaa565b6040516020016111df929190612200565b6040516020818303038152906040529350505050919050565b60008061120483610ccd565b6000818152600c60205260409020805460ff19166001179055915050919050565b6000818152600760205260408120546112505760405162461bcd60e51b815260040161061f90612949565b6008546000838152600760205260409020546107009190612c4b565b6000818152600760205260408120546112975760405162461bcd60e51b815260040161061f90612949565b6000600854346112a79190612c96565b6000848152600760205260409020549091508110156112d85760405162461bcd60e51b815260040161061f90612581565b60006112e384610aee565b60008581526007602052604081208054919055909150611304823387611639565b6040516001600160a01b0383169082156108fc029083906000818181858888f1935050505015801561133a573d6000803e3d6000fd5b508034111561137b57336108fc6113518386612c96565b6040518115909202916000818181858888f19350505050158015611379573d6000803e3d6000fd5b505b600080516020612e1c833981519152858260405161139a929190612c3d565b60405180910390a1506001949350505050565b6113b5611512565b6001600160a01b03166113c6610e04565b6001600160a01b0316146113ec5760405162461bcd60e51b815260040161061f906128cb565b805161097490600f906020840190611d48565b6001600160a01b03918216600090815260066020908152604080832093909416825291909152205460ff1690565b61143733826115b4565b6114535760405162461bcd60e51b815260040161061f90612bec565b6000908152600c60205260409020805460ff19169055565b611473611512565b6001600160a01b0316611484610e04565b6001600160a01b0316146114aa5760405162461bcd60e51b815260040161061f906128cb565b6001600160a01b0381166114d05760405162461bcd60e51b815260040161061f90612505565b6114d981611780565b50565b6001600160e01b031981166301ffc9a760e01b14919050565b6000908152600360205260409020546001600160a01b0316151590565b3390565b600081815260076020526040902054156115425760405162461bcd60e51b815260040161061f90612975565b600081815260056020526040902080546001600160a01b0319166001600160a01b038416908117909155819061157782610aee565b6001600160a01b03167f8c5be1e5ebec7d5bd14f71427d1e84f3dd0314c0f7b2291e5b200ac8c7c3b92560405160405180910390a45050565b5490565b60006115bf826114f5565b6115db5760405162461bcd60e51b815260040161061f90612673565b60006115e683610aee565b9050806001600160a01b0316846001600160a01b031614806116215750836001600160a01b03166116168461079a565b6001600160a01b0316145b80611631575061163181856113ff565b949350505050565b826001600160a01b031661164c82610aee565b6001600160a01b0316146116725760405162461bcd60e51b815260040161061f90612900565b6001600160a01b0382166116985760405162461bcd60e51b815260040161061f906125fc565b600081815260076020526040902054156116c45760405162461bcd60e51b815260040161061f90612acc565b6116cf838383610870565b6116da600082611516565b6001600160a01b0383166000908152600460205260408120805460019290611703908490612c96565b90915550506001600160a01b0382166000908152600460205260408120805460019290611731908490612c4b565b909155505060008181526003602052604080822080546001600160a01b0319166001600160a01b038681169182179092559151849391871691600080516020612e3c83398151915291a4505050565b600080546001600160a01b038381166001600160a01b0319831681178455604051919092169283917f8be0079c531659141344cd1fd0a4f28419497f9722a3daafe3b4186f6b6457e09190a35050565b80546001019055565b6001600160a01b0382166117ff5760405162461bcd60e51b815260040161061f906127f5565b611808816114f5565b156118255760405162461bcd60e51b815260040161061f9061254b565b61183160008383610870565b6001600160a01b038216600090815260046020526040812080546001929061185a908490612c4b565b909155505060008181526003602052604080822080546001600160a01b0319166001600160a01b0386169081179091559051839290600080516020612e3c833981519152908290a45050565b600090815260076020526040902054151590565b816001600160a01b0316836001600160a01b031614156118ec5760405162461bcd60e51b815260040161061f90612640565b6001600160a01b0383811660008181526006602090815260408083209487168084529490915290819020805460ff1916851515179055517f17307eab39ab6107e8899845ad3d59bd9653f200f220920489ca2b5937696c319061195090859061244a565b60405180910390a3505050565b611968848484611639565b61197484848484611c1e565b6111185760405162461bcd60e51b815260040161061f906124b3565b6060816119b557506040805180820190915260018152600360fc1b6020820152610703565b8160005b81156119df57806119c981612d14565b91506119d89050600a83612c63565b91506119b9565b6000816001600160401b03811115611a0757634e487b7160e01b600052604160045260246000fd5b6040519080825280601f01601f191660200182016040528015611a31576020820181803683370190505b5090505b841561163157611a46600183612c96565b9150611a53600a86612d2f565b611a5e906030612c4b565b60f81b818381518110611a8157634e487b7160e01b600052603260045260246000fd5b60200101906001600160f81b031916908160001a905350611aa3600a86612c63565b9450611a35565b6060815160001415611acb5750604080516020810190915260008152610703565b6000604051806060016040528060408152602001612dbc6040913990506000600384516002611afa9190612c4b565b611b049190612c63565b611b0f906004612c77565b90506000611b1e826020612c4b565b6001600160401b03811115611b4357634e487b7160e01b600052604160045260246000fd5b6040519080825280601f01601f191660200182016040528015611b6d576020820181803683370190505b509050818152600183018586518101602084015b81831015611bd9576003830192508251603f8160121c168501518253600182019150603f81600c1c168501518253600182019150603f8160061c168501518253600182019150603f8116850151825350600101611b81565b600389510660018114611bf35760028114611c0457611c10565b613d3d60f01b600119830152611c10565b603d60f81b6000198301525b509398975050505050505050565b6000611c32846001600160a01b0316611d39565b15611d2e57836001600160a01b031663150b7a02611c4e611512565b8786866040518563ffffffff1660e01b8152600401611c70949392919061240d565b602060405180830381600087803b158015611c8a57600080fd5b505af1925050508015611cba575060408051601f3d908101601f19168201909252611cb791810190612011565b60015b611d14573d808015611ce8576040519150601f19603f3d011682016040523d82523d6000602084013e611ced565b606091505b508051611d0c5760405162461bcd60e51b815260040161061f906124b3565b805181602001fd5b6001600160e01b031916630a85bd0160e11b149050611631565b506001949350505050565b6001600160a01b03163b151590565b828054611d5490612cd9565b90600052602060002090601f016020900481019282611d765760008555611dbc565b82601f10611d8f57805160ff1916838001178555611dbc565b82800160010185558215611dbc579182015b82811115611dbc578251825591602001919060010190611da1565b50611dc8929150611dcc565b5090565b5b80821115611dc85760008155600101611dcd565b60006001600160401b0380841115611dfb57611dfb612d6f565b604051601f8501601f19908116603f01168101908282118183101715611e2357611e23612d6f565b81604052809350858152868686011115611e3c57600080fd5b858560208301376000602087830101525050509392505050565b80356001600160a01b038116811461070357600080fd5b600082601f830112611e7d578081fd5b611e8c83833560208501611de1565b9392505050565b600060208284031215611ea4578081fd5b611e8c82611e56565b60008060408385031215611ebf578081fd5b611ec883611e56565b9150611ed660208401611e56565b90509250929050565b600080600060608486031215611ef3578081fd5b611efc84611e56565b9250611f0a60208501611e56565b9150604084013590509250925092565b60008060008060808587031215611f2f578081fd5b611f3885611e56565b9350611f4660208601611e56565b92506040850135915060608501356001600160401b03811115611f67578182fd5b8501601f81018713611f77578182fd5b611f8687823560208401611de1565b91505092959194509250565b60008060408385031215611fa4578182fd5b611fad83611e56565b915060208301358015158114611fc1578182fd5b809150509250929050565b60008060408385031215611fde578182fd5b611fe783611e56565b946020939093013593505050565b600060208284031215612006578081fd5b8135611e8c81612d85565b600060208284031215612022578081fd5b8151611e8c81612d85565b60006020828403121561203e578081fd5b81356001600160401b03811115612053578182fd5b61163184828501611e6d565b60008060408385031215612071578182fd5b82356001600160401b03811115612086578283fd5b61209285828601611e6d565b95602094909401359450505050565b6000602082840312156120b2578081fd5b5035919050565b600080604083850312156120cb578182fd5b8235915060208301356001600160401b038111156120e7578182fd5b6120f385828601611e6d565b9150509250929050565b6000806040838503121561210f578182fd5b50508035926020909101359150565b60008151808452612136816020860160208601612cad565b601f01601f19169290920160200192915050565b6000815161215c818560208601612cad565b9290920192915050565b6000815461217381612cd9565b6001828116801561218b576001811461219c576121cb565b60ff198416875282870194506121cb565b8560005260208060002060005b858110156121c25781548a8201529084019082016121a9565b50505082870194505b5050505092915050565b62220a7d60e81b815260030190565b600082516121f6818460208701612cad565b9190910192915050565b60008351612212818460208801612cad565b835190830190612226818360208801612cad565b01949350505050565b600080835461223d81612cd9565b60018281168015612255576001811461226657612292565b60ff19841687528287019450612292565b8786526020808720875b858110156122895781548a820152908401908201612270565b50505082870194505b50929695505050505050565b60006122aa8285612166565b8351612226818360208801612cad565b777b0a09226e616d65223a2022496e2057726974696e67202360401b815287516000906122ee816018850160208d01612cad565b6e111605049139ba3934b733911d101160891b601891840191820152885161231d816027840160208d01612cad565b74111605049132bc3a32b93730b62fbab936111d101160591b6027929091019182015261234d603c820189612166565b9050865161235f818360208b01612cad565b7311160504913232b9b1b934b83a34b7b7111d101160611b91019081526123896014820187612166565b6f11160504913a37b5b2b724b2111d101160811b815285519091506123b5816010840160208901612cad565b72111605049134b6b0b3b2afb230ba30911d101160691b601092909101918201526123eb6123e6602383018661214a565b6121d5565b9a9950505050505050505050565b6001600160a01b0391909116815260200190565b6001600160a01b03858116825284166020820152604081018390526080606082018190526000906124409083018461211e565b9695505050505050565b901515815260200190565b600060208252611e8c602083018461211e565b6020808252603d90820152600080516020612d9c83398151915260408201527f6b656e2c20736f20796f752063616e6e6f742064652d6c697374206974000000606082015260800190565b60208082526032908201527f4552433732313a207472616e7366657220746f206e6f6e20455243373231526560408201527131b2b4bb32b91034b6b83632b6b2b73a32b960711b606082015260800190565b60208082526026908201527f4f776e61626c653a206e6577206f776e657220697320746865207a65726f206160408201526564647265737360d01b606082015260800190565b6020808252601c908201527b115490cdcc8c4e881d1bdad95b88185b1c9958591e481b5a5b9d195960221b604082015260600190565b602080825260129082015271696e73756666696369656e742076616c756560701b604082015260600190565b6020808252602f908201527f7468697320746f6b656e206973206c6f636b65642c20736f206974206d61792060408201526e1b9bdd081899481b5bd91a599a5959608a1b606082015260800190565b60208082526024908201527f4552433732313a207472616e7366657220746f20746865207a65726f206164646040820152637265737360e01b606082015260800190565b60208082526019908201527822a9219b99189d1030b8383937bb32903a379031b0b63632b960391b604082015260600190565b6020808252602c908201527f4552433732313a206f70657261746f7220717565727920666f72206e6f6e657860408201526b34b9ba32b73a103a37b5b2b760a11b606082015260800190565b60208082526038908201527f4552433732313a20617070726f76652063616c6c6572206973206e6f74206f776040820152771b995c881b9bdc88185c1c1c9bdd995908199bdc88185b1b60421b606082015260800190565b6020808252603f90820152600080516020612d9c83398151915260408201527f6b656e2c20736f20796f752063616e6e6f7420617070656e6420746f20697400606082015260800190565b6020808252602a908201527f4552433732313a2062616c616e636520717565727920666f7220746865207a65604082015269726f206164647265737360b01b606082015260800190565b60208082526029908201527f4552433732313a206f776e657220717565727920666f72206e6f6e657869737460408201526832b73a103a37b5b2b760b91b606082015260800190565b6020808252818101527f4552433732313a206d696e7420746f20746865207a65726f2061646472657373604082015260600190565b6020808252602c908201527f4552433732313a20617070726f76656420717565727920666f72206e6f6e657860408201526b34b9ba32b73a103a37b5b2b760a11b606082015260800190565b60208082526035908201527f7468697320746f6b656e20697320757020666f722073616c652c20736f2069746040820152742063616e6e6f7420626520617070656e656420746f60581b606082015260800190565b6020808252818101527f4f776e61626c653a2063616c6c6572206973206e6f7420746865206f776e6572604082015260600190565b60208082526029908201527f4552433732313a207472616e73666572206f6620746f6b656e2074686174206960408201526839903737ba1037bbb760b91b606082015260800190565b602080825260129082015271746f6b656e206e6f7420666f722073616c6560701b604082015260600190565b6020808252605090820152600080516020612dfc83398151915260408201527f73742062652064652d6c6973746564206265666f72652069742063616e20617060608201526f70726f766520616e206164647265737360801b608082015260a00190565b60208082526021908201527f4552433732313a20617070726f76616c20746f2063757272656e74206f776e656040820152603960f91b606082015260800190565b602080825260179082015276546f6b656e494420646f6573206e6f742065786973742160481b604082015260600190565b60208082526031908201527f4552433732313a207472616e736665722063616c6c6572206973206e6f74206f6040820152701ddb995c881b9bdc88185c1c1c9bdd9959607a1b606082015260800190565b6020808252601690820152751c185e5b595b9d081b9bdd081cdd59999a58da595b9d60521b604082015260600190565b6020808252604c90820152600080516020612dfc83398151915260408201527f73742062652064652d6c6973746564206265666f72652069742063616e20626560608201526b081d1c985b9cd9995c9c995960a21b608082015260a00190565b6020808252601f908201527f7072696365206d7573742062652067726561746572207468616e207a65726f00604082015260600190565b6020808252603890820152600080516020612d9c8339815191526040820152771ad95b8b081e5bdd4818d85b881b9bdd081cd95b1b081a5d60421b606082015260800190565b60208082526023908201527f7468697320737472696e672068617320616c7265616479206265656e206d696e6040820152621d195960ea1b606082015260800190565b6020808252602390820152600080516020612d9c83398151915260408201526235b2b760e91b606082015260800190565b90815260200190565b9182526001600160a01b0316602082015260400190565b918252602082015260400190565b60008219821115612c5e57612c5e612d43565b500190565b600082612c7257612c72612d59565b500490565b6000816000190483118215151615612c9157612c91612d43565b500290565b600082821015612ca857612ca8612d43565b500390565b60005b83811015612cc8578181015183820152602001612cb0565b838111156111185750506000910152565b600281046001821680612ced57607f821691505b60208210811415612d0e57634e487b7160e01b600052602260045260246000fd5b50919050565b6000600019821415612d2857612d28612d43565b5060010190565b600082612d3e57612d3e612d59565b500690565b634e487b7160e01b600052601160045260246000fd5b634e487b7160e01b600052601260045260246000fd5b634e487b7160e01b600052604160045260246000fd5b6001600160e01b0319811681146114d957600080fdfe796f7520617265206e6f7420746865206f776e6572206f66207468697320746f4142434445464748494a4b4c4d4e4f505152535455565758595a6162636465666768696a6b6c6d6e6f707172737475767778797a303132333435363738392b2f5468697320746f6b656e20697320757020666f722073616c652c206974206d753ccb2ab6980b218b1dd4974b07365cd90a191e170c611da46262fecc208bd661ddf252ad1be2c89b69c2b068fc378daa952ba7f163c4a11628f55a4df523b3efa2646970667358221220916910431d6d21d5685deae7cc6e19a60d1a486acd7639b112f6d5095403843364736f6c6343000801003368747470733a2f2f696e77726974696e676170692e636f6d2f696e77726974696e672f6765745f7376672e7068703f746f6b656e49443d68747470733a2f2f696e77726974696e672e696f2f746578742e68746d6c3f746f6b656e49443d",
  "linkReferences": {},
  "deployedLinkReferences": {}
}